{
  "_format": "hh-sol-artifact-1",
  "contractName": "EPNSCoreV2",
  "sourceName": "contracts/EPNSCoreV2.sol",
  "abi": [
    {
      "anonymous": false,
      "inputs": [
        {
          "indexed": true,
          "internalType": "address",
          "name": "channel",
          "type": "address"
        },
        {
          "indexed": true,
          "internalType": "enum EPNSCoreV1.ChannelType",
          "name": "channelType",
          "type": "uint8"
        },
        {
          "indexed": false,
          "internalType": "bytes",
          "name": "identity",
          "type": "bytes"
        }
      ],
      "name": "AddChannel",
      "type": "event"
    },
    {
      "anonymous": false,
      "inputs": [
        {
          "indexed": true,
          "internalType": "address",
          "name": "channel",
          "type": "address"
        }
      ],
      "name": "DeactivateChannel",
      "type": "event"
    },
    {
      "anonymous": false,
      "inputs": [
        {
          "indexed": true,
          "internalType": "address",
          "name": "donator",
          "type": "address"
        },
        {
          "indexed": false,
          "internalType": "uint256",
          "name": "amt",
          "type": "uint256"
        }
      ],
      "name": "Donation",
      "type": "event"
    },
    {
      "anonymous": false,
      "inputs": [
        {
          "indexed": true,
          "internalType": "address",
          "name": "user",
          "type": "address"
        },
        {
          "indexed": true,
          "internalType": "uint256",
          "name": "amount",
          "type": "uint256"
        }
      ],
      "name": "InterestClaimed",
      "type": "event"
    },
    {
      "anonymous": false,
      "inputs": [
        {
          "indexed": true,
          "internalType": "address",
          "name": "owner",
          "type": "address"
        },
        {
          "indexed": false,
          "internalType": "bytes",
          "name": "publickey",
          "type": "bytes"
        }
      ],
      "name": "PublicKeyRegistered",
      "type": "event"
    },
    {
      "anonymous": false,
      "inputs": [
        {
          "indexed": true,
          "internalType": "address",
          "name": "channel",
          "type": "address"
        },
        {
          "indexed": true,
          "internalType": "address",
          "name": "recipient",
          "type": "address"
        },
        {
          "indexed": false,
          "internalType": "bytes",
          "name": "identity",
          "type": "bytes"
        }
      ],
      "name": "SendNotification",
      "type": "event"
    },
    {
      "anonymous": false,
      "inputs": [
        {
          "indexed": true,
          "internalType": "address",
          "name": "channel",
          "type": "address"
        },
        {
          "indexed": true,
          "internalType": "address",
          "name": "user",
          "type": "address"
        }
      ],
      "name": "Subscribe",
      "type": "event"
    },
    {
      "anonymous": false,
      "inputs": [
        {
          "indexed": true,
          "internalType": "address",
          "name": "channel",
          "type": "address"
        },
        {
          "indexed": true,
          "internalType": "address",
          "name": "user",
          "type": "address"
        }
      ],
      "name": "Unsubscribe",
      "type": "event"
    },
    {
      "anonymous": false,
      "inputs": [
        {
          "indexed": true,
          "internalType": "address",
          "name": "channel",
          "type": "address"
        },
        {
          "indexed": false,
          "internalType": "bytes",
          "name": "identity",
          "type": "bytes"
        }
      ],
      "name": "UpdateChannel",
      "type": "event"
    },
    {
      "anonymous": false,
      "inputs": [
        {
          "indexed": true,
          "internalType": "address",
          "name": "to",
          "type": "address"
        },
        {
          "indexed": false,
          "internalType": "address",
          "name": "token",
          "type": "address"
        },
        {
          "indexed": false,
          "internalType": "uint256",
          "name": "amount",
          "type": "uint256"
        }
      ],
      "name": "Withdrawal",
      "type": "event"
    },
    {
      "stateMutability": "nonpayable",
      "type": "fallback"
    },
    {
      "inputs": [],
      "name": "REFERRAL_CODE",
      "outputs": [
        {
          "internalType": "uint256",
          "name": "",
          "type": "uint256"
        }
      ],
      "stateMutability": "view",
      "type": "function"
    },
    {
      "inputs": [],
      "name": "aDaiAddress",
      "outputs": [
        {
          "internalType": "address",
          "name": "",
          "type": "address"
        }
      ],
      "stateMutability": "view",
      "type": "function"
    },
    {
      "inputs": [
        {
          "internalType": "address",
          "name": "_addr",
          "type": "address"
        }
      ],
      "name": "addToChannelizationWhitelist",
      "outputs": [],
      "stateMutability": "nonpayable",
      "type": "function"
    },
    {
      "inputs": [
        {
          "internalType": "bytes",
          "name": "_publicKey",
          "type": "bytes"
        }
      ],
      "name": "broadcastUserPublicKey",
      "outputs": [],
      "stateMutability": "nonpayable",
      "type": "function"
    },
    {
      "inputs": [
        {
          "internalType": "address",
          "name": "_user",
          "type": "address"
        },
        {
          "internalType": "uint256",
          "name": "_block",
          "type": "uint256"
        }
      ],
      "name": "calcAllChannelsRatio",
      "outputs": [
        {
          "internalType": "uint256",
          "name": "ratio",
          "type": "uint256"
        }
      ],
      "stateMutability": "view",
      "type": "function"
    },
    {
      "inputs": [
        {
          "internalType": "address",
          "name": "_channel",
          "type": "address"
        },
        {
          "internalType": "address",
          "name": "_user",
          "type": "address"
        },
        {
          "internalType": "uint256",
          "name": "_block",
          "type": "uint256"
        }
      ],
      "name": "calcSingleChannelEarnRatio",
      "outputs": [
        {
          "internalType": "uint256",
          "name": "ratio",
          "type": "uint256"
        }
      ],
      "stateMutability": "view",
      "type": "function"
    },
    {
      "inputs": [
        {
          "internalType": "address",
          "name": "",
          "type": "address"
        }
      ],
      "name": "channels",
      "outputs": [
        {
          "internalType": "enum EPNSCoreV1.ChannelType",
          "name": "channelType",
          "type": "uint8"
        },
        {
          "internalType": "bool",
          "name": "deactivated",
          "type": "bool"
        },
        {
          "internalType": "uint256",
          "name": "poolContribution",
          "type": "uint256"
        },
        {
          "internalType": "uint256",
          "name": "memberCount",
          "type": "uint256"
        },
        {
          "internalType": "uint256",
          "name": "channelHistoricalZ",
          "type": "uint256"
        },
        {
          "internalType": "uint256",
          "name": "channelFairShareCount",
          "type": "uint256"
        },
        {
          "internalType": "uint256",
          "name": "channelLastUpdate",
          "type": "uint256"
        },
        {
          "internalType": "uint256",
          "name": "channelStartBlock",
          "type": "uint256"
        },
        {
          "internalType": "uint256",
          "name": "channelUpdateBlock",
          "type": "uint256"
        },
        {
          "internalType": "uint256",
          "name": "channelWeight",
          "type": "uint256"
        }
      ],
      "stateMutability": "view",
      "type": "function"
    },
    {
      "inputs": [],
      "name": "channelsCount",
      "outputs": [
        {
          "internalType": "uint256",
          "name": "",
          "type": "uint256"
        }
      ],
      "stateMutability": "view",
      "type": "function"
    },
    {
      "inputs": [],
      "name": "claimFairShare",
      "outputs": [
        {
          "internalType": "uint256",
          "name": "ratio",
          "type": "uint256"
        }
      ],
      "stateMutability": "nonpayable",
      "type": "function"
    },
    {
      "inputs": [
        {
          "internalType": "enum EPNSCoreV1.ChannelType",
          "name": "_channelType",
          "type": "uint8"
        },
        {
          "internalType": "bytes",
          "name": "_identity",
          "type": "bytes"
        }
      ],
      "name": "createChannelWithFees",
      "outputs": [],
      "stateMutability": "nonpayable",
      "type": "function"
    },
    {
      "inputs": [
        {
          "internalType": "enum EPNSCoreV1.ChannelType",
          "name": "_channelType",
          "type": "uint8"
        },
        {
          "internalType": "bytes",
          "name": "_identity",
          "type": "bytes"
        },
        {
          "internalType": "bytes",
          "name": "_publickey",
          "type": "bytes"
        }
      ],
      "name": "createChannelWithFeesAndPublicKey",
      "outputs": [],
      "stateMutability": "nonpayable",
      "type": "function"
    },
    {
      "inputs": [],
      "name": "createPromoterChannel",
      "outputs": [],
      "stateMutability": "nonpayable",
      "type": "function"
    },
    {
      "inputs": [],
      "name": "daiAddress",
      "outputs": [
        {
          "internalType": "address",
          "name": "",
          "type": "address"
        }
      ],
      "stateMutability": "view",
      "type": "function"
    },
    {
      "inputs": [],
      "name": "deactivateChannel",
      "outputs": [],
      "stateMutability": "nonpayable",
      "type": "function"
    },
    {
      "inputs": [],
      "name": "donate",
      "outputs": [],
      "stateMutability": "payable",
      "type": "function"
    },
    {
      "inputs": [
        {
          "internalType": "address",
          "name": "_channel",
          "type": "address"
        },
        {
          "internalType": "uint256",
          "name": "_block",
          "type": "uint256"
        }
      ],
      "name": "getChannelFSRatio",
      "outputs": [
        {
          "internalType": "uint256",
          "name": "ratio",
          "type": "uint256"
        }
      ],
      "stateMutability": "view",
      "type": "function"
    },
    {
      "inputs": [
        {
          "internalType": "address",
          "name": "_channel",
          "type": "address"
        },
        {
          "internalType": "uint256",
          "name": "_subscriberId",
          "type": "uint256"
        }
      ],
      "name": "getChannelSubscriberAddress",
      "outputs": [
        {
          "internalType": "address",
          "name": "subscriber",
          "type": "address"
        }
      ],
      "stateMutability": "view",
      "type": "function"
    },
    {
      "inputs": [
        {
          "internalType": "address",
          "name": "_channel",
          "type": "address"
        },
        {
          "internalType": "uint256",
          "name": "_subscriberId",
          "type": "uint256"
        }
      ],
      "name": "getChannelSubscriberUserID",
      "outputs": [
        {
          "internalType": "uint256",
          "name": "userId",
          "type": "uint256"
        }
      ],
      "stateMutability": "view",
      "type": "function"
    },
    {
      "inputs": [
        {
          "internalType": "address",
          "name": "_channel",
          "type": "address"
        },
        {
          "internalType": "address",
          "name": "_user",
          "type": "address"
        },
        {
          "internalType": "uint256",
          "name": "_block",
          "type": "uint256"
        }
      ],
      "name": "getSubscriberFSRatio",
      "outputs": [
        {
          "internalType": "uint256",
          "name": "ratio",
          "type": "uint256"
        }
      ],
      "stateMutability": "view",
      "type": "function"
    },
    {
      "inputs": [
        {
          "internalType": "bytes",
          "name": "_publicKey",
          "type": "bytes"
        }
      ],
      "name": "getWalletFromPublicKey",
      "outputs": [
        {
          "internalType": "address",
          "name": "wallet",
          "type": "address"
        }
      ],
      "stateMutability": "pure",
      "type": "function"
    },
    {
      "inputs": [],
      "name": "governance",
      "outputs": [
        {
          "internalType": "address",
          "name": "",
          "type": "address"
        }
      ],
      "stateMutability": "view",
      "type": "function"
    },
    {
      "inputs": [],
      "name": "groupFairShareCount",
      "outputs": [
        {
          "internalType": "uint256",
          "name": "",
          "type": "uint256"
        }
      ],
      "stateMutability": "view",
      "type": "function"
    },
    {
      "inputs": [],
      "name": "groupHistoricalZ",
      "outputs": [
        {
          "internalType": "uint256",
          "name": "",
          "type": "uint256"
        }
      ],
      "stateMutability": "view",
      "type": "function"
    },
    {
      "inputs": [],
      "name": "groupLastUpdate",
      "outputs": [
        {
          "internalType": "uint256",
          "name": "",
          "type": "uint256"
        }
      ],
      "stateMutability": "view",
      "type": "function"
    },
    {
      "inputs": [],
      "name": "groupNormalizedWeight",
      "outputs": [
        {
          "internalType": "uint256",
          "name": "",
          "type": "uint256"
        }
      ],
      "stateMutability": "view",
      "type": "function"
    },
    {
      "inputs": [
        {
          "internalType": "address",
          "name": "_governance",
          "type": "address"
        },
        {
          "internalType": "address",
          "name": "_lendingPoolProviderAddress",
          "type": "address"
        },
        {
          "internalType": "address",
          "name": "_daiAddress",
          "type": "address"
        },
        {
          "internalType": "address",
          "name": "_aDaiAddress",
          "type": "address"
        },
        {
          "internalType": "uint256",
          "name": "_referralCode",
          "type": "uint256"
        }
      ],
      "name": "initialize",
      "outputs": [
        {
          "internalType": "bool",
          "name": "success",
          "type": "bool"
        }
      ],
      "stateMutability": "nonpayable",
      "type": "function"
    },
    {
      "inputs": [],
      "name": "initializeUpgrade",
      "outputs": [],
      "stateMutability": "nonpayable",
      "type": "function"
    },
    {
      "inputs": [],
      "name": "lendingPoolProviderAddress",
      "outputs": [
        {
          "internalType": "address",
          "name": "",
          "type": "address"
        }
      ],
      "stateMutability": "view",
      "type": "function"
    },
    {
      "inputs": [
        {
          "internalType": "uint256",
          "name": "",
          "type": "uint256"
        }
      ],
      "name": "mapAddressChannels",
      "outputs": [
        {
          "internalType": "address",
          "name": "",
          "type": "address"
        }
      ],
      "stateMutability": "view",
      "type": "function"
    },
    {
      "inputs": [
        {
          "internalType": "uint256",
          "name": "",
          "type": "uint256"
        }
      ],
      "name": "mapAddressUsers",
      "outputs": [
        {
          "internalType": "address",
          "name": "",
          "type": "address"
        }
      ],
      "stateMutability": "view",
      "type": "function"
    },
    {
      "inputs": [
        {
          "internalType": "address",
          "name": "_user",
          "type": "address"
        },
        {
          "internalType": "address",
          "name": "_channel",
          "type": "address"
        }
      ],
      "name": "memberExists",
      "outputs": [
        {
          "internalType": "bool",
          "name": "subscribed",
          "type": "bool"
        }
      ],
      "stateMutability": "view",
      "type": "function"
    },
    {
      "inputs": [],
      "name": "ownerDaiFunds",
      "outputs": [
        {
          "internalType": "uint256",
          "name": "",
          "type": "uint256"
        }
      ],
      "stateMutability": "view",
      "type": "function"
    },
    {
      "inputs": [],
      "name": "poolFunds",
      "outputs": [
        {
          "internalType": "uint256",
          "name": "",
          "type": "uint256"
        }
      ],
      "stateMutability": "view",
      "type": "function"
    },
    {
      "inputs": [
        {
          "internalType": "address",
          "name": "_addr",
          "type": "address"
        }
      ],
      "name": "removeFromChannelizationWhitelist",
      "outputs": [],
      "stateMutability": "nonpayable",
      "type": "function"
    },
    {
      "inputs": [
        {
          "internalType": "address",
          "name": "_recipient",
          "type": "address"
        },
        {
          "internalType": "bytes",
          "name": "_identity",
          "type": "bytes"
        }
      ],
      "name": "sendNotification",
      "outputs": [],
      "stateMutability": "nonpayable",
      "type": "function"
    },
    {
      "inputs": [
        {
          "internalType": "address",
          "name": "_channel",
          "type": "address"
        },
        {
          "internalType": "address",
          "name": "_recipient",
          "type": "address"
        },
        {
          "internalType": "bytes",
          "name": "_identity",
          "type": "bytes"
        }
      ],
      "name": "sendNotificationOverrideChannel",
      "outputs": [],
      "stateMutability": "nonpayable",
      "type": "function"
    },
    {
      "inputs": [
        {
          "internalType": "address",
          "name": "_channel",
          "type": "address"
        }
      ],
      "name": "subscribe",
      "outputs": [],
      "stateMutability": "nonpayable",
      "type": "function"
    },
    {
      "inputs": [
        {
          "internalType": "address",
          "name": "_channel",
          "type": "address"
        },
        {
          "internalType": "address",
          "name": "_user",
          "type": "address"
        }
      ],
      "name": "subscribeDelegated",
      "outputs": [],
      "stateMutability": "nonpayable",
      "type": "function"
    },
    {
      "inputs": [
        {
          "internalType": "address",
          "name": "_channel",
          "type": "address"
        },
        {
          "internalType": "bytes",
          "name": "_publicKey",
          "type": "bytes"
        }
      ],
      "name": "subscribeWithPublicKey",
      "outputs": [],
      "stateMutability": "nonpayable",
      "type": "function"
    },
    {
      "inputs": [
        {
          "internalType": "address",
          "name": "_channel",
          "type": "address"
        },
        {
          "internalType": "address",
          "name": "_user",
          "type": "address"
        },
        {
          "internalType": "bytes",
          "name": "_publicKey",
          "type": "bytes"
        }
      ],
      "name": "subscribeWithPublicKeyDelegated",
      "outputs": [],
      "stateMutability": "nonpayable",
      "type": "function"
    },
    {
      "inputs": [
        {
          "internalType": "address",
          "name": "_newGovernance",
          "type": "address"
        }
      ],
      "name": "transferGovernance",
      "outputs": [],
      "stateMutability": "nonpayable",
      "type": "function"
    },
    {
      "inputs": [
        {
          "internalType": "address",
          "name": "_channel",
          "type": "address"
        }
      ],
      "name": "unsubscribe",
      "outputs": [
        {
          "internalType": "uint256",
          "name": "ratio",
          "type": "uint256"
        }
      ],
      "stateMutability": "nonpayable",
      "type": "function"
    },
    {
      "inputs": [
        {
          "internalType": "address",
          "name": "_channel",
          "type": "address"
        },
        {
          "internalType": "bytes",
          "name": "_identity",
          "type": "bytes"
        }
      ],
      "name": "updateChannelMeta",
      "outputs": [],
      "stateMutability": "nonpayable",
      "type": "function"
    },
    {
      "inputs": [
        {
          "internalType": "address",
          "name": "",
          "type": "address"
        }
      ],
      "name": "users",
      "outputs": [
        {
          "internalType": "bool",
          "name": "userActivated",
          "type": "bool"
        },
        {
          "internalType": "bool",
          "name": "publicKeyRegistered",
          "type": "bool"
        },
        {
          "internalType": "bool",
          "name": "channellized",
          "type": "bool"
        },
        {
          "internalType": "uint256",
          "name": "userStartBlock",
          "type": "uint256"
        },
        {
          "internalType": "uint256",
          "name": "subscribedCount",
          "type": "uint256"
        },
        {
          "internalType": "uint256",
          "name": "timeWeightedBalance",
          "type": "uint256"
        }
      ],
      "stateMutability": "view",
      "type": "function"
    },
    {
      "inputs": [],
      "name": "usersCount",
      "outputs": [
        {
          "internalType": "uint256",
          "name": "",
          "type": "uint256"
        }
      ],
      "stateMutability": "view",
      "type": "function"
    },
    {
      "inputs": [
        {
          "internalType": "address",
          "name": "",
          "type": "address"
        }
      ],
      "name": "usersInterestClaimed",
      "outputs": [
        {
          "internalType": "uint256",
          "name": "",
          "type": "uint256"
        }
      ],
      "stateMutability": "view",
      "type": "function"
    },
    {
      "inputs": [
        {
          "internalType": "address",
          "name": "",
          "type": "address"
        }
      ],
      "name": "usersInterestInWallet",
      "outputs": [
        {
          "internalType": "uint256",
          "name": "",
          "type": "uint256"
        }
      ],
      "stateMutability": "view",
      "type": "function"
    },
    {
      "inputs": [],
      "name": "withdrawDaiFunds",
      "outputs": [],
      "stateMutability": "nonpayable",
      "type": "function"
    },
    {
      "inputs": [],
      "name": "withdrawEthFunds",
      "outputs": [],
      "stateMutability": "nonpayable",
      "type": "function"
    },
    {
      "stateMutability": "payable",
      "type": "receive"
    }
  ],
  "bytecode": "0x60806040526000601a5534801561001557600080fd5b50600180556144c5806100296000396000f3fe6080604052600436106102b25760003560e01c806375e880fc11610175578063b9d048df116100dc578063e12799b111610095578063ed88c68e1161006f578063ed88c68e14610823578063f7013ef61461082b578063fb9e9e271461084b578063fde360011461086b576102b9565b8063e12799b1146107d9578063e8846d71146107ee578063e886dd0c1461080e576102b9565b8063b9d048df1461072f578063bc2104d21461074f578063be3e9ba714610764578063d38bfff414610784578063d3db49cb146107a4578063daa947f5146107c4576102b9565b80639519d5db1161012e5780639519d5db1461067357806398d2f06a146106885780639c9c2cbe146106a8578063a87430ba146106c8578063aba03325146106fa578063b677c7a71461070f576102b9565b806375e880fc146105a85780637d306268146105bd5780637dce34f7146105dd5780637faf7ff61461061357806383efb0dd146106335780639019c69f14610653576102b9565b806341a7726a116102195780635aa6e675116101d25780635aa6e6751461051f57806368a8e5b61461053457806369fb0ede146105495780636ba13a821461055e5780636d1b6d46146105735780637262561c14610588576102b9565b806341a7726a1461045d5780634486b1671461047d5780634ff322451461049d57806350e20060146104ca5780635227dd05146104ea57806355091fe51461050a576102b9565b8063211ea1481161026b578063211ea148146103be5780632c387275146103de578063341c485b146103f35780633583849a146104135780633d1e76eb146104285780634134465a1461043d576102b9565b8063098b2041146102fc5780630ded773114610327578063110e01a81461034957806311e297381461035e57806313d5f2011461037e5780631e919cb71461039e576102b9565b366102b957005b3480156102c557600080fd5b506102fa60405180604001604052806013815260200172696e2066616c6c6261636b206f6620636f726560681b81525061088b565b005b34801561030857600080fd5b506103116108d1565b60405161031e9190613af1565b60405180910390f35b34801561033357600080fd5b5061033c6108e0565b60405161031e9190614419565b34801561035557600080fd5b5061033c6108e6565b34801561036a57600080fd5b506102fa61037936600461385b565b6108ec565b34801561038a57600080fd5b506102fa6103993660046136e5565b6109bd565b3480156103aa57600080fd5b5061033c6103b93660046136e5565b610a0b565b3480156103ca57600080fd5b506102fa6103d936600461385b565b610a1d565b3480156103ea57600080fd5b50610311610a6e565b3480156103ff57600080fd5b506102fa61040e36600461371d565b610a7d565b34801561041f57600080fd5b5061033c610b53565b34801561043457600080fd5b506102fa610b59565b34801561044957600080fd5b50610311610458366004613939565b610bf3565b34801561046957600080fd5b506102fa6104783660046136e5565b610c15565b34801561048957600080fd5b506102fa6104983660046137b8565b610c92565b3480156104a957600080fd5b506104bd6104b836600461371d565b610dcf565b60405161031e9190613b81565b3480156104d657600080fd5b506102fa6104e53660046136e5565b610e02565b3480156104f657600080fd5b50610311610505366004613a79565b610e4d565b34801561051657600080fd5b5061033c610e68565b34801561052b57600080fd5b50610311610e6e565b34801561054057600080fd5b5061033c610e7d565b34801561055557600080fd5b506102fa610e83565b34801561056a57600080fd5b5061033c610f27565b34801561057f57600080fd5b50610311610f2d565b34801561059457600080fd5b5061033c6105a33660046136e5565b610f3c565b3480156105b457600080fd5b506102fa61125a565b3480156105c957600080fd5b506102fa6105d83660046137b8565b611481565b3480156105e957600080fd5b506105fd6105f83660046136e5565b611574565b60405161031e9a99989796959493929190613bf8565b34801561061f57600080fd5b5061033c61062e3660046138ae565b6115c4565b34801561063f57600080fd5b5061033c61064e36600461381b565b611768565b34801561065f57600080fd5b506102fa61066e3660046138f9565b6118a5565b34801561067f57600080fd5b5061033c61190d565b34801561069457600080fd5b506103116106a33660046138ae565b611913565b3480156106b457600080fd5b506102fa6106c33660046139d4565b61193f565b3480156106d457600080fd5b506106e86106e33660046136e5565b611a52565b60405161031e96959493929190613b8c565b34801561070657600080fd5b506102fa611a8e565b34801561071b57600080fd5b5061033c61072a3660046138ae565b611b11565b34801561073b57600080fd5b5061033c61074a3660046138ae565b611bf9565b34801561075b57600080fd5b5061033c611c34565b34801561077057600080fd5b5061033c61077f3660046136e5565b611c3a565b34801561079057600080fd5b506102fa61079f3660046136e5565b611c4c565b3480156107b057600080fd5b506103116107bf366004613a79565b611cec565b3480156107d057600080fd5b5061033c611d07565b3480156107e557600080fd5b506102fa611d0d565b3480156107fa57600080fd5b5061033c61080936600461381b565b611d9f565b34801561081a57600080fd5b5061033c611ecb565b6102fa612092565b34801561083757600080fd5b506104bd610846366004613755565b6120fc565b34801561085757600080fd5b506102fa6108663660046139f6565b6122b0565b34801561087757600080fd5b506102fa61088636600461385b565b61241f565b6108ce8160405160240161089f9190613be5565b60408051601f198184030181529190526020810180516001600160e01b031663104c13eb60e21b1790526124fa565b50565b600b546001600160a01b031681565b600f5481565b60115481565b3360008181526005602052604090205462010000900460ff161515600114801561091e5750336001600160a01b038216145b806109455750600c546001600160a01b03163314801561094557506001600160a01b038116155b61096a5760405162461bcd60e51b81526004016109619061429b565b60405180910390fd5b836001600160a01b0316336001600160a01b03167fcc2b84a32bce3d060db75a4c0e59bfef192503be5c83bfa5ad79a41d384ff22c85856040516109af929190613bb6565b60405180910390a350505050565b600c546001600160a01b031633146109e75760405162461bcd60e51b815260040161096190613ee8565b6001600160a01b03166000908152600260205260409020805460ff19166001179055565b60076020526000908152604090205481565b826001600160a01b03167fdd0f9713dcb5498a41e3486b288bc746b035efb57770050da0ec0e800154532c8383604051610a58929190613bb6565b60405180910390a2610a698361251b565b505050565b600a546001600160a01b031681565b6001600160a01b038216600090815260056020526040902054829062010000900460ff1615156001148015610ad057506001600160a01b038116600090815260036020526040902054610100900460ff16155b610aec5760405162461bcd60e51b815260040161096190613d5c565b6001600160a01b03808316600090815260056020908152604080832093871683526006909301905220548390839060ff1615610b3a5760405162461bcd60e51b815260040161096190613ce7565b610b426126b5565b610b4c85856126ef565b5050505050565b60155481565b600c546001600160a01b03163314610b835760405162461bcd60e51b815260040161096190613ee8565b601454600a54610ba4906001600160a01b031630338463ffffffff6128da16565b6000601455600a5460405133917f2717ead6b9200dd235aad468c9809ea400fe33ac69b5bfaa6d3e90fc922b639891610be8916001600160a01b0316908590613b43565b60405180910390a250565b6000815160401415610c0c575080516020820120610c10565b5060005b919050565b6001600160a01b038116600090815260056020526040902054819062010000900460ff1615156001148015610c6857506001600160a01b038116600090815260036020526040902054610100900460ff16155b610c845760405162461bcd60e51b815260040161096190613d5c565b610c8e82336126ef565b5050565b6001600160a01b038416600090815260056020526040902054849062010000900460ff1615156001148015610ce557506001600160a01b038116600090815260036020526040902054610100900460ff16155b610d015760405162461bcd60e51b815260040161096190613d5c565b6001600160a01b03808516600090815260056020908152604080832093891683526006909301905220548590859060ff1615610d4f5760405162461bcd60e51b815260040161096190613ce7565b610d576126b5565b6001600160a01b038616600090815260056020526040902054610100900460ff16610dbc57610dbc3386868080601f01602080910402602001604051908101604052809392919081815260200183838082843760009201919091525061293292505050565b610dc687876126ef565b50505050505050565b6001600160a01b039081166000908152600360209081526040808320949093168252600990930190925290205460ff1690565b600c546001600160a01b03163314610e2c5760405162461bcd60e51b815260040161096190613ee8565b6001600160a01b03166000908152600260205260409020805460ff19169055565b6006602052600090815260409020546001600160a01b031681565b600d5481565b600c546001600160a01b031681565b60105481565b600c546001600160a01b03163314610ead5760405162461bcd60e51b815260040161096190613ee8565b600c5460405147916001600160a01b03169082156108fc029083906000818181858888f19350505050158015610ee7573d6000803e3d6000fd5b50600a5460405133917f2717ead6b9200dd235aad468c9809ea400fe33ac69b5bfaa6d3e90fc922b639891610be8916001600160a01b0316908590613b43565b600e5481565b6009546001600160a01b031681565b6001600160a01b038116600090815260056020526040812054829062010000900460ff161515600114610f815760405162461bcd60e51b81526004016109619061429b565b82336001600160a01b0382168114801590610fca57506001600160a01b038083166000908152600360209081526040808320938516835260099093019052205460ff1615156001145b610fe65760405162461bcd60e51b815260040161096190614352565b3360008181526005602090815260408083206001600160a01b038a168452600681019092528220805460ff191660011790559095509061102890879043611d9f565b6001600160a01b03878116600090815260048401602081815260408084208054600289018054875260058a0180865284882054891688529585528387208290558054875294909352818520549285528185208054939096166001600160a01b0319938416179095559383905581548352929091208054909216909155549095506110b39060016129dd565b6002828101919091556001600160a01b038781166000908152600360209081526040808320338452600981018352818420805460ff19169055600a8101808452828520805497830180548752600b840180875285882054891688529286528487208990558054875291909452828520549685528285208054979096166001600160a01b031997881617909555918390558354835290912080549093169092555461115e9060016129dd565b60028201556001600160a01b0387166000908152600360208190526040822060048101549181015460059091015461119893929190612a28565b6001600160a01b038a1660009081526003602081905260409091206005810192909255810191909155600401556001815460ff1660038111156111d757fe5b14806111f257506002815460ff1660038111156111f057fe5b145b8061120c57506003815460ff16600381111561120a57fe5b145b1561121a5761121a86612aff565b60405133906001600160a01b038916907f9d3d878d2fb01c43ad7ec7c20d8f5d0dbac4888df940a4edaab4540ccefdc10290600090a35050505050919050565b3060009081526005602052604090205462010000900460ff16156112905760405162461bcd60e51b815260040161096190613cb8565b600a5460195460405163095ea7b360e01b81526001600160a01b039092169163095ea7b3916112c491309190600401613b43565b602060405180830381600087803b1580156112de57600080fd5b505af11580156112f2573d6000803e3d6000fd5b505050506040513d601f19601f8201168201806040525081019061131691906138d9565b50601954600a54604051636eb1769f60e11b81526001600160a01b039091169063dd62ed3e9061134c9033903090600401613b05565b60206040518083038186803b15801561136457600080fd5b505afa158015611378573d6000803e3d6000fd5b505050506040513d601f19601f8201168201806040525081019061139c9190613a91565b10156113ba5760405162461bcd60e51b815260040161096190613ebc565b600a546019546040516323b872dd60e01b81526001600160a01b03909216916323b872dd916113ef9133913091600401613b1f565b602060405180830381600087803b15801561140957600080fd5b505af115801561141d573d6000803e3d6000fd5b505050506040513d601f19601f8201168201806040525081019061144191906138d9565b506001306001600160a01b031660008051602061447083398151915260405161146990613e28565b60405180910390a361147f306001601954612cf6565b565b3360008181526005602052604090205462010000900460ff16151560011480156114b35750336001600160a01b038216145b806114da5750600c546001600160a01b0316331480156114da57506001600160a01b038116155b6114f65760405162461bcd60e51b81526004016109619061429b565b600c546001600160a01b031633146115205760405162461bcd60e51b815260040161096190613ee8565b836001600160a01b0316856001600160a01b03167fcc2b84a32bce3d060db75a4c0e59bfef192503be5c83bfa5ad79a41d384ff22c8585604051611565929190613bb6565b60405180910390a35050505050565b600360208190526000918252604090912080546001820154600283015493830154600484015460058501546006860154600787015460089097015460ff808816996101009098041697959695908a565b6001600160a01b038216600090815260056020526040812054839060ff1615156001146116035760405162461bcd60e51b81526004016109619061426b565b6001600160a01b038416600090815260056020526040812060020154905b8181101561175f5760016001600160a01b038088166000908152600560208181526040808420878552909201815281832054909316825260039283905290205460ff169081111561166e57fe5b14806116bc575060026001600160a01b038088166000908152600560208181526040808420878552909201815281832054909316825260039283905290205460ff16908111156116ba57fe5b145b8061170757506001600160a01b038681166000908152600560208181526040808420868552909201815281832054909316825260039283905290205460ff168181111561170557fe5b145b15611757576001600160a01b0380871660009081526005602081815260408084208685529092019052812054909161174191168888611d9f565b9050611753858263ffffffff612d0a16565b9450505b600101611621565b50505092915050565b6001600160a01b038084166000908152600360209081526040808320938616835260099093019052908120548490849060ff1615156001146117bc5760405162461bcd60e51b815260040161096190614234565b6001600160a01b0380871660009081526003602090815260408083209389168352600c9093019052908120546117f990869063ffffffff6129dd16565b6001600160a01b03881660009081526003602081905260408220908101546005909101549293509161183290889063ffffffff6129dd16565b6001600160a01b038a1660009081526003602052604081206004015491925090611862908363ffffffff612d2f16565b9050611897611877848363ffffffff612d0a16565b60185461188b90879063ffffffff612d2f16565b9063ffffffff612d6916565b9a9950505050505050505050565b3360009081526005602052604090205460ff610100909104161515600114156118cd57610c8e565b610c8e3383838080601f01602080910402602001604051908101604052809392919081815260200183838082843760009201919091525061293292505050565b60145481565b6001600160a01b039182166000908152600360209081526040808320938352600b909301905220541690565b3360009081526005602052604090205462010000900460ff16156119755760405162461bcd60e51b815260040161096190613c4c565b82600281600381111561198457fe5b148061199b5750600381600381111561199957fe5b145b6119b75760405162461bcd60e51b81526004016109619061415b565b600c5433906001600160a01b03168114806119ef57506001600160a01b03811660009081526002602052604090205460ff1615156001145b611a0b5760405162461bcd60e51b815260040161096190613e78565b846003811115611a1757fe5b336001600160a01b03166000805160206144708339815191528686604051611a40929190613bb6565b60405180910390a3610b4c3386612dab565b600560205260009081526040902080546001820154600283015460039093015460ff808416946101008504821694620100009004909116929186565b3360008181526005602052604090205462010000900460ff1615156001148015611ad657506001600160a01b038116600090815260036020526040902054610100900460ff16155b611af25760405162461bcd60e51b815260040161096190613d5c565b50336000908152600360205260409020805461ff001916610100179055565b6001600160a01b0382166000908152600360205260408120600601548190611b4090849063ffffffff6129dd16565b6001600160a01b0385166000908152600360205260408120600801546010546012546011549495509193909290611b7e90889063ffffffff6129dd16565b600f549091506000611ba6611b99848463ffffffff612d2f16565b859063ffffffff612d2f16565b90506000611bba868363ffffffff612d0a16565b90506000611bce898963ffffffff612d2f16565b9050611be98261188b60185484612d2f90919063ffffffff16565b9c9b505050505050505050505050565b6001600160a01b039182166000908152600360209081526040808320938352600b84018252808320549094168252600a909201909152205490565b60135481565b60086020526000908152604090205481565b600c546001600160a01b03163314611c765760405162461bcd60e51b815260040161096190613ee8565b6001600160a01b038116611c9c5760405162461bcd60e51b815260040161096190614189565b600c546001600160a01b0382811691161415611cca5760405162461bcd60e51b815260040161096190613f31565b600c80546001600160a01b0319166001600160a01b0392909216919091179055565b6004602052600090815260409020546001600160a01b031681565b60125481565b6000611d17612e89565b601b5490915060ff1680611d2e5750611d2e612e8e565b80611d3a5750601a5481115b611d565760405162461bcd60e51b8152600401610961906141e6565b601b5460ff16158015611d7657601b805460ff19166001179055601a8290555b600a54611d8b906001600160a01b0316612e94565b8015610c8e57601b805460ff191690555050565b6001600160a01b038084166000908152600360209081526040808320938616835260099093019052908120548490849060ff161515600114611df35760405162461bcd60e51b815260040161096190614234565b60016001600160a01b03871660009081526003602081905260409091205460ff1690811115611e1e57fe5b1480611e52575060026001600160a01b03871660009081526003602081905260409091205460ff1690811115611e5057fe5b145b80611e8357506001600160a01b03861660009081526003602081905260409091205460ff1681811115611e8157fe5b145b15611ec2576000611e948786611b11565b90506000611ea3888888611768565b601854909150611ebd9061188b848463ffffffff612d2f16565b945050505b50509392505050565b3360008181526005602052604081205490919060ff161515600114611f025760405162461bcd60e51b81526004016109619061426b565b60009150815b336000908152600560205260409020600201548110156120845733600090815260056020818152604080842085855290920190529020546001600160a01b031660016001600160a01b03821660009081526003602081905260409091205460ff1690811115611f7357fe5b1480611fa7575060026001600160a01b03821660009081526003602081905260409091205460ff1690811115611fa557fe5b145b80611fd857506001600160a01b03811660009081526003602081905260409091205460ff1681811115611fd657fe5b145b1561207b576001600160a01b0381166000818152600360208181526040808420338552600c81018352908420439055939092529081905260048201549082015460059092015461202b9260029291612a28565b6001600160a01b03841660009081526003602081905260408220600581019390935582019290925560040191909155612065823343611d9f565b9050612077858263ffffffff612d0a16565b9450505b50600101611f08565b5061208e82612aff565b5090565b66038d7ea4c680003410156120b95760405162461bcd60e51b815260040161096190613d16565b336001600160a01b03167f5d8bc849764969eb1bcc6d0a2f55999d0167c1ccec240a4f39cf664ca9c4148e346040516120f29190614419565b60405180910390a2565b60008054610100900460ff16806121165750612116612e8e565b80612124575060005460ff16155b6121405760405162461bcd60e51b815260040161096190614065565b600054610100900460ff1615801561216b576000805460ff1961ff0019909116610100171660011790555b600c80546001600160a01b03199081166001600160a01b038a811691909117928390556009805483168a8316179055600a80548316898316179055600b805490921687821617909155601585905567016345785d8a00006017556802b5e3af16b18800006019556a0a56fa5b99019a5c800000601655629896806018556000600d819055600e819055600f819055601081905560118190556012819055601381905560148190556040519092909116906000805160206144708339815191529061223490613dd8565b60405180910390a3600c54612254906001600160a01b0316600080612ed7565b6000806001600160a01b031660008051602061447083398151915260405161227b906142cb565b60405180910390a36122906000806000612ed7565b6001915080156122a6576000805461ff00191690555b5095945050505050565b3360009081526005602052604090205462010000900460ff16156122e65760405162461bcd60e51b815260040161096190613c4c565b8460028160038111156122f557fe5b148061230c5750600381600381111561230a57fe5b145b6123285760405162461bcd60e51b81526004016109619061415b565b600c5433906001600160a01b031681148061236057506001600160a01b03811660009081526002602052604090205460ff1615156001145b61237c5760405162461bcd60e51b815260040161096190613e78565b86600381111561238857fe5b336001600160a01b031660008051602061447083398151915288886040516123b1929190613bb6565b60405180910390a333600090815260056020526040902054610100900460ff16612415576124153385858080601f01602080910402602001604051908101604052809392919081815260200183838082843760009201919091525061293292505050565b610dc63388612dab565b6001600160a01b038316600090815260056020526040902054839062010000900460ff161515600114801561247257506001600160a01b038116600090815260036020526040902054610100900460ff16155b61248e5760405162461bcd60e51b815260040161096190613d5c565b33600090815260056020526040902054610100900460ff166124ea576124ea3384848080601f01602080910402602001604051908101604052809392919081815260200183838082843760009201919091525061293292505050565b6124f484336126ef565b50505050565b80516a636f6e736f6c652e6c6f67602083016000808483855afa5050505050565b6001600160a01b038116600090815260056020526040902054819062010000900460ff16151560011480156125585750336001600160a01b038216145b8061257f5750600c546001600160a01b03163314801561257f57506001600160a01b038116155b61259b5760405162461bcd60e51b81526004016109619061429b565b6001600160a01b038216600090815260056020526040902054829062010000900460ff16151560011480156125ee57506001600160a01b038116600090815260036020526040902054610100900460ff16155b61260a5760405162461bcd60e51b815260040161096190613d5c565b600c546001600160a01b0316331480156126555750600c546001600160a01b038481169116148061264257506001600160a01b038316155b8061265557506001600160a01b03831630145b1561265f5761269a565b6001600160a01b03831660009081526003602052604090206002015460011461269a5760405162461bcd60e51b815260040161096190613c83565b50503360009081526003602052604090204360079091015550565b601754600a546126da916001600160a01b03909116903390309063ffffffff6128da16565b6017546014546108ce9163ffffffff612d0a16565b6001600160a01b03808316600090815260036020908152604080832093851683526009909301905220548290829060ff161561273d5760405162461bcd60e51b8152600401610961906140e3565b6127468361308d565b506001600160a01b038084166000908152600560208181526040808420948916808552600383528185206002870180546004890186528488208190558752948701909352932080546001600160a01b031916909317909255546127b090600163ffffffff612d0a16565b600280840191909155810180546001600160a01b0387166000818152600a850160209081526040808320859055938252600b860190529190912080546001600160a01b03191690911790555461280d90600163ffffffff612d0a16565b60028201556001600160a01b038086166000908152600c830160209081526040808320439055600985018252808320805460ff19166001908117909155938a16835260039182905290912060048101549181015460059091015461287393929190612a28565b6001600160a01b03808a166000818152600360208190526040808320600581019690965590850195909555600490930194909455915191881692917f5ffe3cc8f1055f172e55be8d832143a6cffb4cb3a56a18bf780fd4112d4cecc79190a3505050505050565b6124f4846323b872dd60e01b8585856040516024016128fb93929190613b1f565b60408051601f198184030181529190526020810180516001600160e01b03166001600160e01b03199093169290921790915261311e565b61293b8261308d565b50600061294782610bf3565b9050806001600160a01b0316836001600160a01b031614156129c5576001600160a01b03811660008181526005602052604090819020805461ff001916610100179055517fb3ec32f104accdf61583b5b94e7b80414c5dc5845ffc42e00f5f19775a358a0a906129b8908590613be5565b60405180910390a2610a69565b60405162461bcd60e51b815260040161096190613fe5565b6000612a1f83836040518060400160405280601e81526020017f536166654d6174683a207375627472616374696f6e206f766572666c6f7700008152506131ad565b90505b92915050565b6000808085806001896002811115612a3c57fe5b1415612a5a57612a5382600163ffffffff612d0a16565b9150612ab0565b6000896002811115612a6857fe5b1415612a7f57612a5382600163ffffffff6129dd16565b6002896002811115612a8d57fe5b1415612a9857612ab0565b60405162461bcd60e51b8152600401610961906140b3565b6000612ac2438863ffffffff6129dd16565b90506000612ad6838363ffffffff612d2f16565b90506000612aea8a8363ffffffff612d0a16565b949c949b50439a509398505050505050505050565b60026001541415612b225760405162461bcd60e51b8152600401610961906143e2565b6002600155600b546040516370a0823160e01b81526000916001600160a01b0316906370a0823190612b58903090600401613af1565b60206040518083038186803b158015612b7057600080fd5b505afa158015612b84573d6000803e3d6000fd5b505050506040513d601f19601f82011682018060405250810190612ba89190613a91565b90506000612bc1601354836129dd90919063ffffffff16565b90506000612bd5828563ffffffff612d2f16565b90506000612bee60185483612d6990919063ffffffff16565b601354909150612c04908263ffffffff6129dd16565b60135533600090815260076020526040902054612c27908263ffffffff612d0a16565b336000818152600760205260409081902092909255600b54915163a9059cbb60e01b81526001600160a01b039092169163a9059cbb91612c6b918590600401613b43565b602060405180830381600087803b158015612c8557600080fd5b505af1158015612c99573d6000803e3d6000fd5b505050506040513d601f19601f82011682018060405250810190612cbd91906138d9565b50604051819033907ff9984c8173c4b4ff9cc454f76ed19c053f4490ccb224fd9ddffeb4ef4bea353090600090a3505060018055505050565b612cff816131de565b610a69838383612ed7565b600082820183811015612a1f5760405162461bcd60e51b815260040161096190613da1565b600082612d3e57506000612a22565b82820282848281612d4b57fe5b0414612a1f5760405162461bcd60e51b81526004016109619061411a565b6000612a1f83836040518060400160405280601a81526020017f536166654d6174683a206469766973696f6e206279207a65726f0000000000008152506133e4565b600a54604051636eb1769f60e11b81526000916001600160a01b03169063dd62ed3e90612dde9086903090600401613b05565b60206040518083038186803b158015612df657600080fd5b505afa158015612e0a573d6000803e3d6000fd5b505050506040513d601f19601f82011682018060405250810190612e2e9190613a91565b90506019548110158015612e4457506016548111155b612e605760405162461bcd60e51b81526004016109619061401c565b600a54612e7e906001600160a01b031684308463ffffffff6128da16565b610a69838383612cf6565b600290565b303b1590565b6108ce81604051602401612ea89190613af1565b60408051601f198184030181529190526020810180516001600160e01b031663161765e160e11b1790526124fa565b6000612ee28461308d565b90506000612f0160195461188b60185486612d2f90919063ffffffff16565b6001600160a01b0386166000908152600560209081526040808320805462ff0000191662010000179055600391829052909120600181810187905581549394508793919260ff19909216918490811115612f5757fe5b02179055506001600160a01b038516600081815260036020908152604080832043600682018190556007820155600801859055600d80548452600490925290912080546001600160a01b03191690921790915554612fbc90600163ffffffff612d0a16565b600d556001846003811115612fcd57fe5b1480612fe457506002846003811115612fe257fe5b145b80612ffa57506003846003811115612ff857fe5b145b1561302357613016600182601254600f5460105460115461341b565b601155601055600f556012555b8115801561303957506001600160a01b03851615155b1561305457600c54613054906001600160a01b0316866126ef565b6001600160a01b0385161561306e5761306e6000866126ef565b600c546001600160a01b03868116911614610b4c57610b4c85866126ef565b6001600160a01b03811660009081526005602052604081205460ff16156130b657506001610c10565b6001600160a01b038216600081815260056020908152604080832043600180830191909155815460ff19168117909155600e805485526006909352922080546001600160a01b03191690931790925590546131169163ffffffff612d0a16565b600e55919050565b6060613173826040518060400160405280602081526020017f5361666545524332303a206c6f772d6c6576656c2063616c6c206661696c6564815250856001600160a01b03166135879092919063ffffffff16565b805190915015610a69578080602001905181019061319191906138d9565b610a695760405162461bcd60e51b815260040161096190614398565b600081848411156131d15760405162461bcd60e51b81526004016109619190613be5565b50508183035b9392505050565b6013546131f1908263ffffffff612d0a16565b60135560095460408051630261bf8b60e01b815290516001600160a01b03909216916000918391630261bf8b91600480820192602092909190829003018186803b15801561323e57600080fd5b505afa158015613252573d6000803e3d6000fd5b505050506040513d601f19601f820116820180604052508101906132769190613701565b9050600a60009054906101000a90046001600160a01b03166001600160a01b031663095ea7b3836001600160a01b031663ed6ff7606040518163ffffffff1660e01b815260040160206040518083038186803b1580156132d557600080fd5b505afa1580156132e9573d6000803e3d6000fd5b505050506040513d601f19601f8201168201806040525081019061330d9190613701565b856040518363ffffffff1660e01b815260040161332b929190613b43565b602060405180830381600087803b15801561334557600080fd5b505af1158015613359573d6000803e3d6000fd5b505050506040513d601f19601f8201168201806040525081019061337d91906138d9565b50600a54601554604051636968703360e11b81526001600160a01b038085169363d2d0e066936133b69391909216918891600401613b5c565b600060405180830381600087803b1580156133d057600080fd5b505af1158015610dc6573d6000803e3d6000fd5b600081836134055760405162461bcd60e51b81526004016109619190613be5565b50600083858161341157fe5b0495945050505050565b60008080808780828960018e600281111561343257fe5b14156134745761344984600163ffffffff612d0a16565b935061345b818463ffffffff612d2f16565b915061346d828e63ffffffff612d0a16565b91506134f2565b60008e600281111561348257fe5b14156134bd5761349984600163ffffffff6129dd16565b93506134ab818463ffffffff612d2f16565b915061346d828e63ffffffff6129dd16565b60028e60028111156134cb57fe5b1415612a985761345b6134e584600163ffffffff6129dd16565b829063ffffffff612d2f16565b836000613505438c63ffffffff6129dd16565b90506000613519858863ffffffff612d6916565b90508c600061352e858563ffffffff612d2f16565b90506000613542828563ffffffff612d2f16565b9050613554838263ffffffff612d0a16565b9250856001141561356457600092505b899d50839c50829b50439a50505050505050505050509650965096509692505050565b6060613596848460008561359e565b949350505050565b6060824710156135c05760405162461bcd60e51b815260040161096190613f9f565b6135c98561365f565b6135e55760405162461bcd60e51b81526004016109619061431b565b60006060866001600160a01b031685876040516136029190613ad5565b60006040518083038185875af1925050503d806000811461363f576040519150601f19603f3d011682016040523d82523d6000602084013e613644565b606091505b5091509150613654828286613665565b979650505050505050565b3b151590565b606083156136745750816131d7565b8251156136845782518084602001fd5b8160405162461bcd60e51b81526004016109619190613be5565b60008083601f8401126136af578182fd5b50813567ffffffffffffffff8111156136c6578182fd5b6020830191508360208285010111156136de57600080fd5b9250929050565b6000602082840312156136f6578081fd5b8135612a1f8161445a565b600060208284031215613712578081fd5b8151612a1f8161445a565b6000806040838503121561372f578081fd5b823561373a8161445a565b9150602083013561374a8161445a565b809150509250929050565b600080600080600060a0868803121561376c578081fd5b85356137778161445a565b945060208601356137878161445a565b935060408601356137978161445a565b925060608601356137a78161445a565b949793965091946080013592915050565b600080600080606085870312156137cd578384fd5b84356137d88161445a565b935060208501356137e88161445a565b9250604085013567ffffffffffffffff811115613803578283fd5b61380f8782880161369e565b95989497509550505050565b60008060006060848603121561382f578283fd5b833561383a8161445a565b9250602084013561384a8161445a565b929592945050506040919091013590565b60008060006040848603121561386f578283fd5b833561387a8161445a565b9250602084013567ffffffffffffffff811115613895578283fd5b6138a18682870161369e565b9497909650939450505050565b600080604083850312156138c0578182fd5b82356138cb8161445a565b946020939093013593505050565b6000602082840312156138ea578081fd5b81518015158114612a1f578182fd5b6000806020838503121561390b578182fd5b823567ffffffffffffffff811115613921578283fd5b61392d8582860161369e565b90969095509350505050565b60006020828403121561394a578081fd5b813567ffffffffffffffff80821115613961578283fd5b81840185601f820112613972578384fd5b8035925081831115613982578384fd5b604051601f8401601f1916810160200183811182821017156139a2578586fd5b6040528381528184016020018710156139b9578485fd5b6139ca846020830160208501614422565b9695505050505050565b6000806000604084860312156139e8578283fd5b83356004811061387a578384fd5b600080600080600060608688031215613a0d578283fd5b853560048110613a1b578384fd5b9450602086013567ffffffffffffffff80821115613a37578485fd5b613a4389838a0161369e565b90965094506040880135915080821115613a5b578283fd5b50613a688882890161369e565b969995985093965092949392505050565b600060208284031215613a8a578081fd5b5035919050565b600060208284031215613aa2578081fd5b5051919050565b60008151808452613ac181602086016020860161442e565b601f01601f19169290920160200192915050565b60008251613ae781846020870161442e565b9190910192915050565b6001600160a01b0391909116815260200190565b6001600160a01b0392831681529116602082015260400190565b6001600160a01b039384168152919092166020820152604081019190915260600190565b6001600160a01b03929092168252602082015260400190565b6001600160a01b03939093168352602083019190915261ffff16604082015260600190565b901515815260200190565b9515158652931515602086015291151560408501526060840152608083015260a082015260c00190565b60006020825282602083015282846040840137818301604090810191909152601f909201601f19160101919050565b600060208252612a1f6020830184613aa9565b610140810160048c10613c0757fe5b9a815298151560208a015260408901979097526060880195909552608087019390935260a086019190915260c085015260e08401526101008301526101209091015290565b6020808252601c908201527f5573657220616c72656164792061204368616e6e656c204f776e657200000000604082015260600190565b6020808252818101527f4368616e6e656c206861732065787465726e616c207375627363726962657273604082015260600190565b60208082526015908201527421b7b73a3930b1ba103430b990283937b6b7ba32b960591b604082015260600190565b60208082526015908201527410da185b9b995b081a5cc819dc985e5b1a5cdd1959605a1b604082015260600190565b60208082526026908201527f4d696e696d756d20446f6e6174696f6e20616d6f756e7420697320302e3030316040820152651032ba3432b960d11b606082015260800190565b60208082526025908201527f4368616e6e656c206465616374697661746564206f7220646f65736e27742065604082015264786973747360d81b606082015260800190565b6020808252601b908201527f536166654d6174683a206164646974696f6e206f766572666c6f770000000000604082015260600190565b60208082526030908201527f312b516d5362525431364a56463932327941423236597857464436446d47736e60408201526f14d21b4e15909c91d5545b961514cdcd60821b606082015260800190565b60208082526030908201527f312b516d526365776e4e70647432445759757564334c784854776f783252715160408201526f1c3abcad2ba2251b32ac9b34a435b33760811b606082015260800190565b60208082526024908201527f55736572206e6f7420696e204368616e6e656c697a6174696f6e2057686974656040820152631b1a5cdd60e21b606082015260800190565b602080825260129082015271496e73756666696369656e742046756e647360701b604082015260600190565b60208082526029908201527f45504e53436f72653a3a6f6e6c79476f762c2075736572206973206e6f7420676040820152686f7665726e616e636560b81b606082015260800190565b60208082526048908201527f45504e53436f72653a3a7472616e73666572476f7665726e616e63652c206e6560408201527f7720676f7665726e616e63652063616e27742062652063757272656e7420676f6060820152677665726e616e636560c01b608082015260a00190565b60208082526026908201527f416464726573733a20696e73756666696369656e742062616c616e636520666f6040820152651c8818d85b1b60d21b606082015260800190565b6020808252601c908201527f5075626c6963204b65792056616c69646174696f6e204661696c656400000000604082015260600190565b60208082526029908201527f496e73756666696369656e742046756e6473206f72206d6178206365696c696e60408201526819c81c995858da195960ba1b606082015260800190565b6020808252602e908201527f496e697469616c697a61626c653a20636f6e747261637420697320616c72656160408201526d191e481a5b9a5d1a585b1a5e995960921b606082015260800190565b60208082526016908201527524b73b30b634b21021b430b73732b61020b1ba34b7b760511b604082015260600190565b60208082526019908201527f5375627363726962657220616c72656164792045786973747300000000000000604082015260600190565b60208082526021908201527f536166654d6174683a206d756c7469706c69636174696f6e206f766572666c6f6040820152607760f81b606082015260800190565b60208082526014908201527310da185b9b995b08151e5c1948125b9d985b1a5960621b604082015260600190565b6020808252603a908201527f45504e53436f72653a3a7472616e73666572476f7665726e616e63652c206e6560408201527f7720676f7665726e616e63652063616e2774206265206e6f6e65000000000000606082015260800190565b6020808252602e908201527f436f6e747261637420696e7374616e63652068617320616c726561647920626560408201526d195b881a5b9a5d1a585b1a5e995960921b606082015260800190565b60208082526019908201527f5375627363726962657220646f65736e27742045786973747300000000000000604082015260600190565b602080825260169082015275155cd95c881b9bdd081858dd1a5d985d1959081e595d60521b604082015260600190565b6020808252601690820152754368616e6e656c20646f65736e27742045786973747360501b604082015260600190565b60208082526030908201527f312b516d54434b594c324852627744366e474e76464c6534775076444e75615960408201526f477236526956654376576a56706e357360801b606082015260800190565b6020808252601d908201527f416464726573733a2063616c6c20746f206e6f6e2d636f6e7472616374000000604082015260600190565b60208082526026908201527f456974686572204368616e6e656c204f776e6572206f72204e6f74205375627360408201526518dc9a58995960d21b606082015260800190565b6020808252602a908201527f5361666545524332303a204552433230206f7065726174696f6e20646964206e6040820152691bdd081cdd58d8d9595960b21b606082015260800190565b6020808252601f908201527f5265656e7472616e637947756172643a207265656e7472616e742063616c6c00604082015260600190565b90815260200190565b82818337506000910152565b60005b83811015614449578181015183820152602001614431565b838111156124f45750506000910152565b6001600160a01b03811681146108ce57600080fdfe1f97bc77a1686355f130d93883d42f2434474cf65f97b29bc451ea7f9388d36aa264697066735822122059c525f93ea00012d353700975c773dbc48a7094a4d070852c73a97d95b1c9cc64736f6c634300060b0033",
  "linkReferences": {},
  "deployedLinkReferences": {}
}