{
  "_format": "hh-sol-artifact-1",
  "contractName": "EPNSCoreV2",
  "sourceName": "contracts/EPNSCoreV2.sol",
  "abi": [
    {
      "anonymous": false,
      "inputs": [
        {
          "indexed": true,
          "internalType": "address",
          "name": "channel",
          "type": "address"
        },
        {
          "indexed": true,
          "internalType": "enum EPNSCoreV1.ChannelType",
          "name": "channelType",
          "type": "uint8"
        },
        {
          "indexed": false,
          "internalType": "bytes",
          "name": "identity",
          "type": "bytes"
        }
      ],
      "name": "AddChannel",
      "type": "event"
    },
    {
      "anonymous": false,
      "inputs": [
        {
          "indexed": false,
          "internalType": "address",
          "name": "channel",
          "type": "address"
        },
        {
          "indexed": false,
          "internalType": "address",
          "name": "delegate",
          "type": "address"
        }
      ],
      "name": "AddDelegate",
      "type": "event"
    },
    {
      "anonymous": false,
      "inputs": [
        {
          "indexed": true,
          "internalType": "address",
          "name": "channel",
          "type": "address"
        }
      ],
      "name": "DeactivateChannel",
      "type": "event"
    },
    {
      "anonymous": false,
      "inputs": [
        {
          "indexed": true,
          "internalType": "address",
          "name": "donator",
          "type": "address"
        },
        {
          "indexed": false,
          "internalType": "uint256",
          "name": "amt",
          "type": "uint256"
        }
      ],
      "name": "Donation",
      "type": "event"
    },
    {
      "anonymous": false,
      "inputs": [
        {
          "indexed": true,
          "internalType": "address",
          "name": "user",
          "type": "address"
        },
        {
          "indexed": true,
          "internalType": "uint256",
          "name": "amount",
          "type": "uint256"
        }
      ],
      "name": "InterestClaimed",
      "type": "event"
    },
    {
      "anonymous": false,
      "inputs": [
        {
          "indexed": true,
          "internalType": "address",
          "name": "owner",
          "type": "address"
        },
        {
          "indexed": false,
          "internalType": "bytes",
          "name": "publickey",
          "type": "bytes"
        }
      ],
      "name": "PublicKeyRegistered",
      "type": "event"
    },
    {
      "anonymous": false,
      "inputs": [
        {
          "indexed": false,
          "internalType": "address",
          "name": "channel",
          "type": "address"
        },
        {
          "indexed": false,
          "internalType": "address",
          "name": "delegate",
          "type": "address"
        }
      ],
      "name": "RemoveDelegate",
      "type": "event"
    },
    {
      "anonymous": false,
      "inputs": [
        {
          "indexed": true,
          "internalType": "address",
          "name": "channel",
          "type": "address"
        },
        {
          "indexed": true,
          "internalType": "address",
          "name": "recipient",
          "type": "address"
        },
        {
          "indexed": false,
          "internalType": "bytes",
          "name": "identity",
          "type": "bytes"
        }
      ],
      "name": "SendNotification",
      "type": "event"
    },
    {
      "anonymous": false,
      "inputs": [
        {
          "indexed": true,
          "internalType": "address",
          "name": "channel",
          "type": "address"
        },
        {
          "indexed": true,
          "internalType": "address",
          "name": "user",
          "type": "address"
        }
      ],
      "name": "Subscribe",
      "type": "event"
    },
    {
      "anonymous": false,
      "inputs": [
        {
          "indexed": true,
          "internalType": "address",
          "name": "channel",
          "type": "address"
        },
        {
          "indexed": true,
          "internalType": "address",
          "name": "user",
          "type": "address"
        }
      ],
      "name": "Unsubscribe",
      "type": "event"
    },
    {
      "anonymous": false,
      "inputs": [
        {
          "indexed": true,
          "internalType": "address",
          "name": "channel",
          "type": "address"
        },
        {
          "indexed": false,
          "internalType": "bytes",
          "name": "identity",
          "type": "bytes"
        }
      ],
      "name": "UpdateChannel",
      "type": "event"
    },
    {
      "anonymous": false,
      "inputs": [
        {
          "indexed": true,
          "internalType": "address",
          "name": "to",
          "type": "address"
        },
        {
          "indexed": false,
          "internalType": "address",
          "name": "token",
          "type": "address"
        },
        {
          "indexed": false,
          "internalType": "uint256",
          "name": "amount",
          "type": "uint256"
        }
      ],
      "name": "Withdrawal",
      "type": "event"
    },
    {
      "stateMutability": "nonpayable",
      "type": "fallback"
    },
    {
      "inputs": [],
      "name": "REFERRAL_CODE",
      "outputs": [
        {
          "internalType": "uint256",
          "name": "",
          "type": "uint256"
        }
      ],
      "stateMutability": "view",
      "type": "function"
    },
    {
      "inputs": [],
      "name": "aDaiAddress",
      "outputs": [
        {
          "internalType": "address",
          "name": "",
          "type": "address"
        }
      ],
      "stateMutability": "view",
      "type": "function"
    },
    {
      "inputs": [
        {
          "internalType": "address",
          "name": "_delegate",
          "type": "address"
        }
      ],
      "name": "addDelegate",
      "outputs": [],
      "stateMutability": "nonpayable",
      "type": "function"
    },
    {
      "inputs": [
        {
          "internalType": "address",
          "name": "_addr",
          "type": "address"
        }
      ],
      "name": "addToChannelizationWhitelist",
      "outputs": [],
      "stateMutability": "nonpayable",
      "type": "function"
    },
    {
      "inputs": [
        {
          "internalType": "bytes",
          "name": "_publicKey",
          "type": "bytes"
        }
      ],
      "name": "broadcastUserPublicKey",
      "outputs": [],
      "stateMutability": "nonpayable",
      "type": "function"
    },
    {
      "inputs": [
        {
          "internalType": "address",
          "name": "_user",
          "type": "address"
        },
        {
          "internalType": "uint256",
          "name": "_block",
          "type": "uint256"
        }
      ],
      "name": "calcAllChannelsRatio",
      "outputs": [
        {
          "internalType": "uint256",
          "name": "ratio",
          "type": "uint256"
        }
      ],
      "stateMutability": "view",
      "type": "function"
    },
    {
      "inputs": [
        {
          "internalType": "address",
          "name": "_channel",
          "type": "address"
        },
        {
          "internalType": "address",
          "name": "_user",
          "type": "address"
        },
        {
          "internalType": "uint256",
          "name": "_block",
          "type": "uint256"
        }
      ],
      "name": "calcSingleChannelEarnRatio",
      "outputs": [
        {
          "internalType": "uint256",
          "name": "ratio",
          "type": "uint256"
        }
      ],
      "stateMutability": "view",
      "type": "function"
    },
    {
      "inputs": [
        {
          "internalType": "address",
          "name": "",
          "type": "address"
        }
      ],
      "name": "channels",
      "outputs": [
        {
          "internalType": "enum EPNSCoreV1.ChannelType",
          "name": "channelType",
          "type": "uint8"
        },
        {
          "internalType": "bool",
          "name": "deactivated",
          "type": "bool"
        },
        {
          "internalType": "uint256",
          "name": "poolContribution",
          "type": "uint256"
        },
        {
          "internalType": "uint256",
          "name": "memberCount",
          "type": "uint256"
        },
        {
          "internalType": "uint256",
          "name": "channelHistoricalZ",
          "type": "uint256"
        },
        {
          "internalType": "uint256",
          "name": "channelFairShareCount",
          "type": "uint256"
        },
        {
          "internalType": "uint256",
          "name": "channelLastUpdate",
          "type": "uint256"
        },
        {
          "internalType": "uint256",
          "name": "channelStartBlock",
          "type": "uint256"
        },
        {
          "internalType": "uint256",
          "name": "channelUpdateBlock",
          "type": "uint256"
        },
        {
          "internalType": "uint256",
          "name": "channelWeight",
          "type": "uint256"
        }
      ],
      "stateMutability": "view",
      "type": "function"
    },
    {
      "inputs": [],
      "name": "channelsCount",
      "outputs": [
        {
          "internalType": "uint256",
          "name": "",
          "type": "uint256"
        }
      ],
      "stateMutability": "view",
      "type": "function"
    },
    {
      "inputs": [
        {
          "internalType": "address",
          "name": "_channel",
          "type": "address"
        },
        {
          "internalType": "address",
          "name": "_delegate",
          "type": "address"
        }
      ],
      "name": "checkDelegateNotificationPermison",
      "outputs": [
        {
          "internalType": "bool",
          "name": "allowed",
          "type": "bool"
        }
      ],
      "stateMutability": "view",
      "type": "function"
    },
    {
      "inputs": [],
      "name": "claimFairShare",
      "outputs": [
        {
          "internalType": "uint256",
          "name": "ratio",
          "type": "uint256"
        }
      ],
      "stateMutability": "nonpayable",
      "type": "function"
    },
    {
      "inputs": [
        {
          "internalType": "enum EPNSCoreV1.ChannelType",
          "name": "_channelType",
          "type": "uint8"
        },
        {
          "internalType": "bytes",
          "name": "_identity",
          "type": "bytes"
        }
      ],
      "name": "createChannelWithFees",
      "outputs": [],
      "stateMutability": "nonpayable",
      "type": "function"
    },
    {
      "inputs": [
        {
          "internalType": "enum EPNSCoreV1.ChannelType",
          "name": "_channelType",
          "type": "uint8"
        },
        {
          "internalType": "bytes",
          "name": "_identity",
          "type": "bytes"
        },
        {
          "internalType": "bytes",
          "name": "_publickey",
          "type": "bytes"
        }
      ],
      "name": "createChannelWithFeesAndPublicKey",
      "outputs": [],
      "stateMutability": "nonpayable",
      "type": "function"
    },
    {
      "inputs": [],
      "name": "createPromoterChannel",
      "outputs": [],
      "stateMutability": "nonpayable",
      "type": "function"
    },
    {
      "inputs": [],
      "name": "daiAddress",
      "outputs": [
        {
          "internalType": "address",
          "name": "",
          "type": "address"
        }
      ],
      "stateMutability": "view",
      "type": "function"
    },
    {
      "inputs": [],
      "name": "deactivateChannel",
      "outputs": [],
      "stateMutability": "nonpayable",
      "type": "function"
    },
    {
      "inputs": [],
      "name": "donate",
      "outputs": [],
      "stateMutability": "payable",
      "type": "function"
    },
    {
      "inputs": [
        {
          "internalType": "address",
          "name": "_channel",
          "type": "address"
        },
        {
          "internalType": "uint256",
          "name": "_block",
          "type": "uint256"
        }
      ],
      "name": "getChannelFSRatio",
      "outputs": [
        {
          "internalType": "uint256",
          "name": "ratio",
          "type": "uint256"
        }
      ],
      "stateMutability": "view",
      "type": "function"
    },
    {
      "inputs": [
        {
          "internalType": "address",
          "name": "_channel",
          "type": "address"
        },
        {
          "internalType": "uint256",
          "name": "_subscriberId",
          "type": "uint256"
        }
      ],
      "name": "getChannelSubscriberAddress",
      "outputs": [
        {
          "internalType": "address",
          "name": "subscriber",
          "type": "address"
        }
      ],
      "stateMutability": "view",
      "type": "function"
    },
    {
      "inputs": [
        {
          "internalType": "address",
          "name": "_channel",
          "type": "address"
        },
        {
          "internalType": "uint256",
          "name": "_subscriberId",
          "type": "uint256"
        }
      ],
      "name": "getChannelSubscriberUserID",
      "outputs": [
        {
          "internalType": "uint256",
          "name": "userId",
          "type": "uint256"
        }
      ],
      "stateMutability": "view",
      "type": "function"
    },
    {
      "inputs": [
        {
          "internalType": "address",
          "name": "_channel",
          "type": "address"
        },
        {
          "internalType": "address",
          "name": "_user",
          "type": "address"
        },
        {
          "internalType": "uint256",
          "name": "_block",
          "type": "uint256"
        }
      ],
      "name": "getSubscriberFSRatio",
      "outputs": [
        {
          "internalType": "uint256",
          "name": "ratio",
          "type": "uint256"
        }
      ],
      "stateMutability": "view",
      "type": "function"
    },
    {
      "inputs": [
        {
          "internalType": "bytes",
          "name": "_publicKey",
          "type": "bytes"
        }
      ],
      "name": "getWalletFromPublicKey",
      "outputs": [
        {
          "internalType": "address",
          "name": "wallet",
          "type": "address"
        }
      ],
      "stateMutability": "pure",
      "type": "function"
    },
    {
      "inputs": [],
      "name": "governance",
      "outputs": [
        {
          "internalType": "address",
          "name": "",
          "type": "address"
        }
      ],
      "stateMutability": "view",
      "type": "function"
    },
    {
      "inputs": [],
      "name": "groupFairShareCount",
      "outputs": [
        {
          "internalType": "uint256",
          "name": "",
          "type": "uint256"
        }
      ],
      "stateMutability": "view",
      "type": "function"
    },
    {
      "inputs": [],
      "name": "groupHistoricalZ",
      "outputs": [
        {
          "internalType": "uint256",
          "name": "",
          "type": "uint256"
        }
      ],
      "stateMutability": "view",
      "type": "function"
    },
    {
      "inputs": [],
      "name": "groupLastUpdate",
      "outputs": [
        {
          "internalType": "uint256",
          "name": "",
          "type": "uint256"
        }
      ],
      "stateMutability": "view",
      "type": "function"
    },
    {
      "inputs": [],
      "name": "groupNormalizedWeight",
      "outputs": [
        {
          "internalType": "uint256",
          "name": "",
          "type": "uint256"
        }
      ],
      "stateMutability": "view",
      "type": "function"
    },
    {
      "inputs": [
        {
          "internalType": "address",
          "name": "_governance",
          "type": "address"
        },
        {
          "internalType": "address",
          "name": "_lendingPoolProviderAddress",
          "type": "address"
        },
        {
          "internalType": "address",
          "name": "_daiAddress",
          "type": "address"
        },
        {
          "internalType": "address",
          "name": "_aDaiAddress",
          "type": "address"
        },
        {
          "internalType": "uint256",
          "name": "_referralCode",
          "type": "uint256"
        }
      ],
      "name": "initialize",
      "outputs": [
        {
          "internalType": "bool",
          "name": "success",
          "type": "bool"
        }
      ],
      "stateMutability": "nonpayable",
      "type": "function"
    },
    {
      "inputs": [],
      "name": "initializeUpgrade",
      "outputs": [],
      "stateMutability": "nonpayable",
      "type": "function"
    },
    {
      "inputs": [],
      "name": "lendingPoolProviderAddress",
      "outputs": [
        {
          "internalType": "address",
          "name": "",
          "type": "address"
        }
      ],
      "stateMutability": "view",
      "type": "function"
    },
    {
      "inputs": [
        {
          "internalType": "uint256",
          "name": "",
          "type": "uint256"
        }
      ],
      "name": "mapAddressChannels",
      "outputs": [
        {
          "internalType": "address",
          "name": "",
          "type": "address"
        }
      ],
      "stateMutability": "view",
      "type": "function"
    },
    {
      "inputs": [
        {
          "internalType": "uint256",
          "name": "",
          "type": "uint256"
        }
      ],
      "name": "mapAddressUsers",
      "outputs": [
        {
          "internalType": "address",
          "name": "",
          "type": "address"
        }
      ],
      "stateMutability": "view",
      "type": "function"
    },
    {
      "inputs": [
        {
          "internalType": "address",
          "name": "_user",
          "type": "address"
        },
        {
          "internalType": "address",
          "name": "_channel",
          "type": "address"
        }
      ],
      "name": "memberExists",
      "outputs": [
        {
          "internalType": "bool",
          "name": "subscribed",
          "type": "bool"
        }
      ],
      "stateMutability": "view",
      "type": "function"
    },
    {
      "inputs": [],
      "name": "ownerDaiFunds",
      "outputs": [
        {
          "internalType": "uint256",
          "name": "",
          "type": "uint256"
        }
      ],
      "stateMutability": "view",
      "type": "function"
    },
    {
      "inputs": [],
      "name": "poolFunds",
      "outputs": [
        {
          "internalType": "uint256",
          "name": "",
          "type": "uint256"
        }
      ],
      "stateMutability": "view",
      "type": "function"
    },
    {
      "inputs": [
        {
          "internalType": "address",
          "name": "_delegate",
          "type": "address"
        }
      ],
      "name": "removeDelegate",
      "outputs": [],
      "stateMutability": "nonpayable",
      "type": "function"
    },
    {
      "inputs": [
        {
          "internalType": "address",
          "name": "_addr",
          "type": "address"
        }
      ],
      "name": "removeFromChannelizationWhitelist",
      "outputs": [],
      "stateMutability": "nonpayable",
      "type": "function"
    },
    {
      "inputs": [
        {
          "internalType": "address",
          "name": "_recipient",
          "type": "address"
        },
        {
          "internalType": "bytes",
          "name": "_identity",
          "type": "bytes"
        }
      ],
      "name": "sendNotification",
      "outputs": [],
      "stateMutability": "nonpayable",
      "type": "function"
    },
    {
      "inputs": [
        {
          "internalType": "address",
          "name": "_channel",
          "type": "address"
        },
        {
          "internalType": "address",
          "name": "_recipient",
          "type": "address"
        },
        {
          "internalType": "bytes",
          "name": "_identity",
          "type": "bytes"
        }
      ],
      "name": "sendNotificationAsDelegate",
      "outputs": [],
      "stateMutability": "nonpayable",
      "type": "function"
    },
    {
      "inputs": [
        {
          "internalType": "address",
          "name": "_channel",
          "type": "address"
        }
      ],
      "name": "subscribe",
      "outputs": [],
      "stateMutability": "nonpayable",
      "type": "function"
    },
    {
      "inputs": [
        {
          "internalType": "address",
          "name": "_channel",
          "type": "address"
        },
        {
          "internalType": "address",
          "name": "_user",
          "type": "address"
        }
      ],
      "name": "subscribeDelegated",
      "outputs": [],
      "stateMutability": "nonpayable",
      "type": "function"
    },
    {
      "inputs": [
        {
          "internalType": "address",
          "name": "_channel",
          "type": "address"
        },
        {
          "internalType": "bytes",
          "name": "_publicKey",
          "type": "bytes"
        }
      ],
      "name": "subscribeWithPublicKey",
      "outputs": [],
      "stateMutability": "nonpayable",
      "type": "function"
    },
    {
      "inputs": [
        {
          "internalType": "address",
          "name": "_channel",
          "type": "address"
        },
        {
          "internalType": "address",
          "name": "_user",
          "type": "address"
        },
        {
          "internalType": "bytes",
          "name": "_publicKey",
          "type": "bytes"
        }
      ],
      "name": "subscribeWithPublicKeyDelegated",
      "outputs": [],
      "stateMutability": "nonpayable",
      "type": "function"
    },
    {
      "inputs": [
        {
          "internalType": "address",
          "name": "_newGovernance",
          "type": "address"
        }
      ],
      "name": "transferGovernance",
      "outputs": [],
      "stateMutability": "nonpayable",
      "type": "function"
    },
    {
      "inputs": [
        {
          "internalType": "address",
          "name": "_channel",
          "type": "address"
        }
      ],
      "name": "unsubscribe",
      "outputs": [
        {
          "internalType": "uint256",
          "name": "ratio",
          "type": "uint256"
        }
      ],
      "stateMutability": "nonpayable",
      "type": "function"
    },
    {
      "inputs": [
        {
          "internalType": "address",
          "name": "_channel",
          "type": "address"
        },
        {
          "internalType": "bytes",
          "name": "_identity",
          "type": "bytes"
        }
      ],
      "name": "updateChannelMeta",
      "outputs": [],
      "stateMutability": "nonpayable",
      "type": "function"
    },
    {
      "inputs": [
        {
          "internalType": "address",
          "name": "",
          "type": "address"
        }
      ],
      "name": "users",
      "outputs": [
        {
          "internalType": "bool",
          "name": "userActivated",
          "type": "bool"
        },
        {
          "internalType": "bool",
          "name": "publicKeyRegistered",
          "type": "bool"
        },
        {
          "internalType": "bool",
          "name": "channellized",
          "type": "bool"
        },
        {
          "internalType": "uint256",
          "name": "userStartBlock",
          "type": "uint256"
        },
        {
          "internalType": "uint256",
          "name": "subscribedCount",
          "type": "uint256"
        },
        {
          "internalType": "uint256",
          "name": "timeWeightedBalance",
          "type": "uint256"
        }
      ],
      "stateMutability": "view",
      "type": "function"
    },
    {
      "inputs": [],
      "name": "usersCount",
      "outputs": [
        {
          "internalType": "uint256",
          "name": "",
          "type": "uint256"
        }
      ],
      "stateMutability": "view",
      "type": "function"
    },
    {
      "inputs": [
        {
          "internalType": "address",
          "name": "",
          "type": "address"
        }
      ],
      "name": "usersInterestClaimed",
      "outputs": [
        {
          "internalType": "uint256",
          "name": "",
          "type": "uint256"
        }
      ],
      "stateMutability": "view",
      "type": "function"
    },
    {
      "inputs": [
        {
          "internalType": "address",
          "name": "",
          "type": "address"
        }
      ],
      "name": "usersInterestInWallet",
      "outputs": [
        {
          "internalType": "uint256",
          "name": "",
          "type": "uint256"
        }
      ],
      "stateMutability": "view",
      "type": "function"
    },
    {
      "inputs": [],
      "name": "withdrawDaiFunds",
      "outputs": [],
      "stateMutability": "nonpayable",
      "type": "function"
    },
    {
      "inputs": [],
      "name": "withdrawEthFunds",
      "outputs": [],
      "stateMutability": "nonpayable",
      "type": "function"
    },
    {
      "stateMutability": "payable",
      "type": "receive"
    }
  ],
  "bytecode": "0x60806040526000601a5534801561001557600080fd5b506001805561473e806100296000396000f3fe6080604052600436106103035760003560e01c80637dce34f711610190578063be3e9ba7116100dc578063e71bdf4111610095578063ed88c68e1161006f578063ed88c68e146108d4578063f7013ef6146108dc578063fb9e9e27146108fc578063fde360011461091c5761030a565b8063e71bdf411461087f578063e8846d711461089f578063e886dd0c146108bf5761030a565b8063be3e9ba7146107d5578063d38bfff4146107f5578063d3db49cb14610815578063daa947f514610835578063df875fbf1461084a578063e12799b11461086a5761030a565b806398d2f06a11610149578063aba0332511610123578063aba033251461076b578063b677c7a714610780578063b9d048df146107a0578063bc2104d2146107c05761030a565b806398d2f06a146106f95780639c9c2cbe14610719578063a87430ba146107395761030a565b80637dce34f71461062e5780637faf7ff61461066457806383efb0dd146106845780638d7f00b5146106a45780639019c69f146106c45780639519d5db146106e45761030a565b80634486b1671161024f57806367e7646f116102085780636ba13a82116101e25780636ba13a82146105cf5780636d1b6d46146105e45780637262561c146105f957806375e880fc146106195761030a565b806367e7646f1461058557806368a8e5b6146105a557806369fb0ede146105ba5761030a565b80634486b167146104ce5780634ff32245146104ee57806350e200601461051b5780635227dd051461053b57806355091fe51461055b5780635aa6e675146105705761030a565b8063211ea148116102bc5780633583849a116102965780633583849a146104645780633d1e76eb146104795780634134465a1461048e57806341a7726a146104ae5761030a565b8063211ea1481461040f5780632c3872751461042f578063341c485b146104445761030a565b8063098b20411461034d5780630ded773114610378578063110e01a81461039a57806311e29738146103af57806313d5f201146103cf5780631e919cb7146103ef5761030a565b3661030a57005b34801561031657600080fd5b5061034b60405180604001604052806013815260200172696e2066616c6c6261636b206f6620636f726560681b81525061093c565b005b34801561035957600080fd5b50610362610982565b60405161036f9190613cc5565b60405180910390f35b34801561038457600080fd5b5061038d610991565b60405161036f9190614692565b3480156103a657600080fd5b5061038d610997565b3480156103bb57600080fd5b5061034b6103ca366004613a37565b61099d565b3480156103db57600080fd5b5061034b6103ea3660046138c1565b610a6e565b3480156103fb57600080fd5b5061038d61040a3660046138c1565b610abc565b34801561041b57600080fd5b5061034b61042a366004613a37565b610ace565b34801561043b57600080fd5b50610362610b1f565b34801561045057600080fd5b5061034b61045f3660046138f9565b610b2e565b34801561047057600080fd5b5061038d610c04565b34801561048557600080fd5b5061034b610c0a565b34801561049a57600080fd5b506103626104a9366004613b15565b610ca4565b3480156104ba57600080fd5b5061034b6104c93660046138c1565b610cc6565b3480156104da57600080fd5b5061034b6104e9366004613994565b610d43565b3480156104fa57600080fd5b5061050e6105093660046138f9565b610e80565b60405161036f9190613d55565b34801561052757600080fd5b5061034b6105363660046138c1565b610eb3565b34801561054757600080fd5b50610362610556366004613c4d565b610efe565b34801561056757600080fd5b5061038d610f19565b34801561057c57600080fd5b50610362610f1f565b34801561059157600080fd5b5061034b6105a03660046138c1565b610f2e565b3480156105b157600080fd5b5061038d61100d565b3480156105c657600080fd5b5061034b611013565b3480156105db57600080fd5b5061038d6110b7565b3480156105f057600080fd5b506103626110bd565b34801561060557600080fd5b5061038d6106143660046138c1565b6110cc565b34801561062557600080fd5b5061034b6113ea565b34801561063a57600080fd5b5061064e6106493660046138c1565b611611565b60405161036f9a99989796959493929190613dcc565b34801561067057600080fd5b5061038d61067f366004613a8a565b611661565b34801561069057600080fd5b5061038d61069f3660046139f7565b611805565b3480156106b057600080fd5b5061050e6106bf3660046138f9565b611942565b3480156106d057600080fd5b5061034b6106df366004613ad5565b611974565b3480156106f057600080fd5b5061038d6119dc565b34801561070557600080fd5b50610362610714366004613a8a565b6119e2565b34801561072557600080fd5b5061034b610734366004613bb0565b611a0e565b34801561074557600080fd5b506107596107543660046138c1565b611b21565b60405161036f96959493929190613d60565b34801561077757600080fd5b5061034b611b5d565b34801561078c57600080fd5b5061038d61079b366004613a8a565b611be0565b3480156107ac57600080fd5b5061038d6107bb366004613a8a565b611cc8565b3480156107cc57600080fd5b5061038d611d03565b3480156107e157600080fd5b5061038d6107f03660046138c1565b611d09565b34801561080157600080fd5b5061034b6108103660046138c1565b611d1b565b34801561082157600080fd5b50610362610830366004613c4d565b611dbb565b34801561084157600080fd5b5061038d611dd6565b34801561085657600080fd5b5061034b610865366004613994565b611ddc565b34801561087657600080fd5b5061034b611e82565b34801561088b57600080fd5b5061034b61089a3660046138c1565b611f14565b3480156108ab57600080fd5b5061038d6108ba3660046139f7565b611fea565b3480156108cb57600080fd5b5061038d612116565b61034b6122dd565b3480156108e857600080fd5b5061050e6108f7366004613931565b612347565b34801561090857600080fd5b5061034b610917366004613bce565b6124fb565b34801561092857600080fd5b5061034b610937366004613a37565b61266a565b61097f816040516024016109509190613db9565b60408051601f198184030181529190526020810180516001600160e01b031663104c13eb60e21b179052612745565b50565b600b546001600160a01b031681565b600f5481565b60115481565b3360008181526005602052604090205462010000900460ff16151560011480156109cf5750336001600160a01b038216145b806109f65750600c546001600160a01b0316331480156109f657506001600160a01b038116155b610a1b5760405162461bcd60e51b8152600401610a12906144dd565b60405180910390fd5b836001600160a01b0316336001600160a01b03167fcc2b84a32bce3d060db75a4c0e59bfef192503be5c83bfa5ad79a41d384ff22c8585604051610a60929190613d8a565b60405180910390a350505050565b600c546001600160a01b03163314610a985760405162461bcd60e51b8152600401610a12906140bc565b6001600160a01b03166000908152600260205260409020805460ff19166001179055565b60076020526000908152604090205481565b826001600160a01b03167fdd0f9713dcb5498a41e3486b288bc746b035efb57770050da0ec0e800154532c8383604051610b09929190613d8a565b60405180910390a2610b1a83612766565b505050565b600a546001600160a01b031681565b6001600160a01b038216600090815260056020526040902054829062010000900460ff1615156001148015610b8157506001600160a01b038116600090815260036020526040902054610100900460ff16155b610b9d5760405162461bcd60e51b8152600401610a1290613f30565b6001600160a01b03808316600090815260056020908152604080832093871683526006909301905220548390839060ff1615610beb5760405162461bcd60e51b8152600401610a1290613ebb565b610bf3612900565b610bfd858561293a565b5050505050565b60155481565b600c546001600160a01b03163314610c345760405162461bcd60e51b8152600401610a12906140bc565b601454600a54610c55906001600160a01b031630338463ffffffff612b2516565b6000601455600a5460405133917f2717ead6b9200dd235aad468c9809ea400fe33ac69b5bfaa6d3e90fc922b639891610c99916001600160a01b0316908590613d17565b60405180910390a250565b6000815160401415610cbd575080516020820120610cc1565b5060005b919050565b6001600160a01b038116600090815260056020526040902054819062010000900460ff1615156001148015610d1957506001600160a01b038116600090815260036020526040902054610100900460ff16155b610d355760405162461bcd60e51b8152600401610a1290613f30565b610d3f823361293a565b5050565b6001600160a01b038416600090815260056020526040902054849062010000900460ff1615156001148015610d9657506001600160a01b038116600090815260036020526040902054610100900460ff16155b610db25760405162461bcd60e51b8152600401610a1290613f30565b6001600160a01b03808516600090815260056020908152604080832093891683526006909301905220548590859060ff1615610e005760405162461bcd60e51b8152600401610a1290613ebb565b610e08612900565b6001600160a01b038616600090815260056020526040902054610100900460ff16610e6d57610e6d3386868080601f016020809104026020016040519081016040528093929190818152602001838380828437600092019190915250612b7d92505050565b610e77878761293a565b50505050505050565b6001600160a01b039081166000908152600360209081526040808320949093168252600990930190925290205460ff1690565b600c546001600160a01b03163314610edd5760405162461bcd60e51b8152600401610a12906140bc565b6001600160a01b03166000908152600260205260409020805460ff19169055565b6006602052600090815260409020546001600160a01b031681565b600d5481565b600c546001600160a01b031681565b3360008181526005602052604090205462010000900460ff1615156001148015610f605750336001600160a01b038216145b80610f875750600c546001600160a01b031633148015610f8757506001600160a01b038116155b610fa35760405162461bcd60e51b8152600401610a12906144dd565b3360008181526003602090815260408083206001600160a01b0387168452600d0190915290819020805460ff19169055517fdccc2d936ded24d2153d2760581a7f0dcb23ec71190c9726b3584cdd700214d491611001918590613cd9565b60405180910390a15050565b60105481565b600c546001600160a01b0316331461103d5760405162461bcd60e51b8152600401610a12906140bc565b600c5460405147916001600160a01b03169082156108fc029083906000818181858888f19350505050158015611077573d6000803e3d6000fd5b50600a5460405133917f2717ead6b9200dd235aad468c9809ea400fe33ac69b5bfaa6d3e90fc922b639891610c99916001600160a01b0316908590613d17565b600e5481565b6009546001600160a01b031681565b6001600160a01b038116600090815260056020526040812054829062010000900460ff1615156001146111115760405162461bcd60e51b8152600401610a12906144dd565b82336001600160a01b038216811480159061115a57506001600160a01b038083166000908152600360209081526040808320938516835260099093019052205460ff1615156001145b6111765760405162461bcd60e51b8152600401610a1290614594565b3360008181526005602090815260408083206001600160a01b038a168452600681019092528220805460ff19166001179055909550906111b890879043611fea565b6001600160a01b03878116600090815260048401602081815260408084208054600289018054875260058a0180865284882054891688529585528387208290558054875294909352818520549285528185208054939096166001600160a01b031993841617909555938390558154835292909120805490921690915554909550611243906001612c28565b6002828101919091556001600160a01b038781166000908152600360209081526040808320338452600981018352818420805460ff19169055600a8101808452828520805497830180548752600b840180875285882054891688529286528487208990558054875291909452828520549685528285208054979096166001600160a01b03199788161790955591839055835483529091208054909316909255546112ee906001612c28565b60028201556001600160a01b0387166000908152600360208190526040822060048101549181015460059091015461132893929190612c55565b6001600160a01b038a1660009081526003602081905260409091206005810192909255810191909155600401556001815460ff16600381111561136757fe5b148061138257506002815460ff16600381111561138057fe5b145b8061139c57506003815460ff16600381111561139a57fe5b145b156113aa576113aa86612d2c565b60405133906001600160a01b038916907f9d3d878d2fb01c43ad7ec7c20d8f5d0dbac4888df940a4edaab4540ccefdc10290600090a35050505050919050565b3060009081526005602052604090205462010000900460ff16156114205760405162461bcd60e51b8152600401610a1290613e8c565b600a5460195460405163095ea7b360e01b81526001600160a01b039092169163095ea7b39161145491309190600401613d17565b602060405180830381600087803b15801561146e57600080fd5b505af1158015611482573d6000803e3d6000fd5b505050506040513d601f19601f820116820180604052508101906114a69190613ab5565b50601954600a54604051636eb1769f60e11b81526001600160a01b039091169063dd62ed3e906114dc9033903090600401613cd9565b60206040518083038186803b1580156114f457600080fd5b505afa158015611508573d6000803e3d6000fd5b505050506040513d601f19601f8201168201806040525081019061152c9190613c65565b101561154a5760405162461bcd60e51b8152600401610a1290614090565b600a546019546040516323b872dd60e01b81526001600160a01b03909216916323b872dd9161157f9133913091600401613cf3565b602060405180830381600087803b15801561159957600080fd5b505af11580156115ad573d6000803e3d6000fd5b505050506040513d601f19601f820116820180604052508101906115d19190613ab5565b506001306001600160a01b03166000805160206146e98339815191526040516115f990613ffc565b60405180910390a361160f306001601954612f23565b565b600360208190526000918252604090912080546001820154600283015493830154600484015460058501546006860154600787015460089097015460ff808816996101009098041697959695908a565b6001600160a01b038216600090815260056020526040812054839060ff1615156001146116a05760405162461bcd60e51b8152600401610a12906144ad565b6001600160a01b038416600090815260056020526040812060020154905b818110156117fc5760016001600160a01b038088166000908152600560208181526040808420878552909201815281832054909316825260039283905290205460ff169081111561170b57fe5b1480611759575060026001600160a01b038088166000908152600560208181526040808420878552909201815281832054909316825260039283905290205460ff169081111561175757fe5b145b806117a457506001600160a01b038681166000908152600560208181526040808420868552909201815281832054909316825260039283905290205460ff16818111156117a257fe5b145b156117f4576001600160a01b038087166000908152600560208181526040808420868552909201905281205490916117de91168888611fea565b90506117f0858263ffffffff612f3716565b9450505b6001016116be565b50505092915050565b6001600160a01b038084166000908152600360209081526040808320938616835260099093019052908120548490849060ff1615156001146118595760405162461bcd60e51b8152600401610a1290614476565b6001600160a01b0380871660009081526003602090815260408083209389168352600c90930190529081205461189690869063ffffffff612c2816565b6001600160a01b0388166000908152600360208190526040822090810154600590910154929350916118cf90889063ffffffff612c2816565b6001600160a01b038a16600090815260036020526040812060040154919250906118ff908363ffffffff612f6316565b9050611934611914848363ffffffff612f3716565b60185461192890879063ffffffff612f6316565b9063ffffffff612f9d16565b9a9950505050505050505050565b6001600160a01b039182166000908152600360209081526040808320939094168252600d909201909152205460ff1690565b3360009081526005602052604090205460ff6101009091041615156001141561199c57610d3f565b610d3f3383838080601f016020809104026020016040519081016040528093929190818152602001838380828437600092019190915250612b7d92505050565b60145481565b6001600160a01b039182166000908152600360209081526040808320938352600b909301905220541690565b3360009081526005602052604090205462010000900460ff1615611a445760405162461bcd60e51b8152600401610a1290613e20565b826002816003811115611a5357fe5b1480611a6a57506003816003811115611a6857fe5b145b611a865760405162461bcd60e51b8152600401610a129061439d565b600c5433906001600160a01b0316811480611abe57506001600160a01b03811660009081526002602052604090205460ff1615156001145b611ada5760405162461bcd60e51b8152600401610a129061404c565b846003811115611ae657fe5b336001600160a01b03166000805160206146e98339815191528686604051611b0f929190613d8a565b60405180910390a3610bfd3386612fcf565b600560205260009081526040902080546001820154600283015460039093015460ff808416946101008504821694620100009004909116929186565b3360008181526005602052604090205462010000900460ff1615156001148015611ba557506001600160a01b038116600090815260036020526040902054610100900460ff16155b611bc15760405162461bcd60e51b8152600401610a1290613f30565b50336000908152600360205260409020805461ff001916610100179055565b6001600160a01b0382166000908152600360205260408120600601548190611c0f90849063ffffffff612c2816565b6001600160a01b0385166000908152600360205260408120600801546010546012546011549495509193909290611c4d90889063ffffffff612c2816565b600f549091506000611c75611c68848463ffffffff612f6316565b859063ffffffff612f6316565b90506000611c89868363ffffffff612f3716565b90506000611c9d898963ffffffff612f6316565b9050611cb88261192860185484612f6390919063ffffffff16565b9c9b505050505050505050505050565b6001600160a01b039182166000908152600360209081526040808320938352600b84018252808320549094168252600a909201909152205490565b60135481565b60086020526000908152604090205481565b600c546001600160a01b03163314611d455760405162461bcd60e51b8152600401610a12906140bc565b6001600160a01b038116611d6b5760405162461bcd60e51b8152600401610a12906143cb565b600c546001600160a01b0382811691161415611d995760405162461bcd60e51b8152600401610a129061413c565b600c80546001600160a01b0319166001600160a01b0392909216919091179055565b6004602052600090815260409020546001600160a01b031681565b60125481565b6001600160a01b038416600090815260036020908152604080832033808552600d90910190925290912054859060ff161515600114611e2d5760405162461bcd60e51b8152600401610a129061465b565b846001600160a01b0316866001600160a01b03167fcc2b84a32bce3d060db75a4c0e59bfef192503be5c83bfa5ad79a41d384ff22c8686604051611e72929190613d8a565b60405180910390a3505050505050565b6000611e8c6130ad565b601b5490915060ff1680611ea35750611ea36130b2565b80611eaf5750601a5481115b611ecb5760405162461bcd60e51b8152600401610a1290614428565b601b5460ff16158015611eeb57601b805460ff19166001179055601a8290555b600a54611f00906001600160a01b03166130b8565b8015610d3f57601b805460ff191690555050565b3360008181526005602052604090205462010000900460ff1615156001148015611f465750336001600160a01b038216145b80611f6d5750600c546001600160a01b031633148015611f6d57506001600160a01b038116155b611f895760405162461bcd60e51b8152600401610a12906144dd565b3360008181526003602090815260408083206001600160a01b0387168452600d0190915290819020805460ff19166001179055517f2fd5b26f00131bd8ca0fc556207292b85a6bec241341df82724333227458e63091611001918590613cd9565b6001600160a01b038084166000908152600360209081526040808320938616835260099093019052908120548490849060ff16151560011461203e5760405162461bcd60e51b8152600401610a1290614476565b60016001600160a01b03871660009081526003602081905260409091205460ff169081111561206957fe5b148061209d575060026001600160a01b03871660009081526003602081905260409091205460ff169081111561209b57fe5b145b806120ce57506001600160a01b03861660009081526003602081905260409091205460ff16818111156120cc57fe5b145b1561210d5760006120df8786611be0565b905060006120ee888888611805565b60185490915061210890611928848463ffffffff612f6316565b945050505b50509392505050565b3360008181526005602052604081205490919060ff16151560011461214d5760405162461bcd60e51b8152600401610a12906144ad565b60009150815b336000908152600560205260409020600201548110156122cf5733600090815260056020818152604080842085855290920190529020546001600160a01b031660016001600160a01b03821660009081526003602081905260409091205460ff16908111156121be57fe5b14806121f2575060026001600160a01b03821660009081526003602081905260409091205460ff16908111156121f057fe5b145b8061222357506001600160a01b03811660009081526003602081905260409091205460ff168181111561222157fe5b145b156122c6576001600160a01b0381166000818152600360208181526040808420338552600c8101835290842043905593909252908190526004820154908201546005909201546122769260029291612c55565b6001600160a01b038416600090815260036020819052604082206005810193909355820192909255600401919091556122b0823343611fea565b90506122c2858263ffffffff612f3716565b9450505b50600101612153565b506122d982612d2c565b5090565b66038d7ea4c680003410156123045760405162461bcd60e51b8152600401610a1290613eea565b336001600160a01b03167f5d8bc849764969eb1bcc6d0a2f55999d0167c1ccec240a4f39cf664ca9c4148e3460405161233d9190614692565b60405180910390a2565b60008054610100900460ff168061236157506123616130fb565b8061236f575060005460ff16155b61238b5760405162461bcd60e51b8152600401610a12906142a7565b600054610100900460ff161580156123b6576000805460ff1961ff0019909116610100171660011790555b600c80546001600160a01b03199081166001600160a01b038a811691909117928390556009805483168a8316179055600a80548316898316179055600b805490921687821617909155601585905567016345785d8a00006017556802b5e3af16b18800006019556a0a56fa5b99019a5c800000601655629896806018556000600d819055600e819055600f819055601081905560118190556012819055601381905560148190556040519092909116906000805160206146e98339815191529061247f90613fac565b60405180910390a3600c5461249f906001600160a01b031660008061310c565b6000806001600160a01b03166000805160206146e98339815191526040516124c69061450d565b60405180910390a36124db600080600061310c565b6001915080156124f1576000805461ff00191690555b5095945050505050565b3360009081526005602052604090205462010000900460ff16156125315760405162461bcd60e51b8152600401610a1290613e20565b84600281600381111561254057fe5b14806125575750600381600381111561255557fe5b145b6125735760405162461bcd60e51b8152600401610a129061439d565b600c5433906001600160a01b03168114806125ab57506001600160a01b03811660009081526002602052604090205460ff1615156001145b6125c75760405162461bcd60e51b8152600401610a129061404c565b8660038111156125d357fe5b336001600160a01b03166000805160206146e983398151915288886040516125fc929190613d8a565b60405180910390a333600090815260056020526040902054610100900460ff16612660576126603385858080601f016020809104026020016040519081016040528093929190818152602001838380828437600092019190915250612b7d92505050565b610e773388612fcf565b6001600160a01b038316600090815260056020526040902054839062010000900460ff16151560011480156126bd57506001600160a01b038116600090815260036020526040902054610100900460ff16155b6126d95760405162461bcd60e51b8152600401610a1290613f30565b33600090815260056020526040902054610100900460ff16612735576127353384848080601f016020809104026020016040519081016040528093929190818152602001838380828437600092019190915250612b7d92505050565b61273f843361293a565b50505050565b80516a636f6e736f6c652e6c6f67602083016000808483855afa5050505050565b6001600160a01b038116600090815260056020526040902054819062010000900460ff16151560011480156127a35750336001600160a01b038216145b806127ca5750600c546001600160a01b0316331480156127ca57506001600160a01b038116155b6127e65760405162461bcd60e51b8152600401610a12906144dd565b6001600160a01b038216600090815260056020526040902054829062010000900460ff161515600114801561283957506001600160a01b038116600090815260036020526040902054610100900460ff16155b6128555760405162461bcd60e51b8152600401610a1290613f30565b600c546001600160a01b0316331480156128a05750600c546001600160a01b038481169116148061288d57506001600160a01b038316155b806128a057506001600160a01b03831630145b156128aa576128e5565b6001600160a01b0383166000908152600360205260409020600201546001146128e55760405162461bcd60e51b8152600401610a1290613e57565b50503360009081526003602052604090204360079091015550565b601754600a54612925916001600160a01b03909116903390309063ffffffff612b2516565b60175460145461097f9163ffffffff612f3716565b6001600160a01b03808316600090815260036020908152604080832093851683526009909301905220548290829060ff16156129885760405162461bcd60e51b8152600401610a1290614325565b612991836132c2565b506001600160a01b038084166000908152600560208181526040808420948916808552600383528185206002870180546004890186528488208190558752948701909352932080546001600160a01b031916909317909255546129fb90600163ffffffff612f3716565b600280840191909155810180546001600160a01b0387166000818152600a850160209081526040808320859055938252600b860190529190912080546001600160a01b031916909117905554612a5890600163ffffffff612f3716565b60028201556001600160a01b038086166000908152600c830160209081526040808320439055600985018252808320805460ff19166001908117909155938a168352600391829052909120600481015491810154600590910154612abe93929190612c55565b6001600160a01b03808a166000818152600360208190526040808320600581019690965590850195909555600490930194909455915191881692917f5ffe3cc8f1055f172e55be8d832143a6cffb4cb3a56a18bf780fd4112d4cecc79190a3505050505050565b61273f846323b872dd60e01b858585604051602401612b4693929190613cf3565b60408051601f198184030181529190526020810180516001600160e01b03166001600160e01b031990931692909217909152613353565b612b86826132c2565b506000612b9282610ca4565b9050806001600160a01b0316836001600160a01b03161415612c10576001600160a01b03811660008181526005602052604090819020805461ff001916610100179055517fb3ec32f104accdf61583b5b94e7b80414c5dc5845ffc42e00f5f19775a358a0a90612c03908590613db9565b60405180910390a2610b1a565b60405162461bcd60e51b8152600401610a12906141f0565b600082821115612c4a5760405162461bcd60e51b8152600401610a1290614105565b508082035b92915050565b6000808085806001896002811115612c6957fe5b1415612c8757612c8082600163ffffffff612f3716565b9150612cdd565b6000896002811115612c9557fe5b1415612cac57612c8082600163ffffffff612c2816565b6002896002811115612cba57fe5b1415612cc557612cdd565b60405162461bcd60e51b8152600401610a12906142f5565b6000612cef438863ffffffff612c2816565b90506000612d03838363ffffffff612f6316565b90506000612d178a8363ffffffff612f3716565b949c949b50439a509398505050505050505050565b60026001541415612d4f5760405162461bcd60e51b8152600401610a1290614624565b6002600155600b546040516370a0823160e01b81526000916001600160a01b0316906370a0823190612d85903090600401613cc5565b60206040518083038186803b158015612d9d57600080fd5b505afa158015612db1573d6000803e3d6000fd5b505050506040513d601f19601f82011682018060405250810190612dd59190613c65565b90506000612dee60135483612c2890919063ffffffff16565b90506000612e02828563ffffffff612f6316565b90506000612e1b60185483612f9d90919063ffffffff16565b601354909150612e31908263ffffffff612c2816565b60135533600090815260076020526040902054612e54908263ffffffff612f3716565b336000818152600760205260409081902092909255600b54915163a9059cbb60e01b81526001600160a01b039092169163a9059cbb91612e98918590600401613d17565b602060405180830381600087803b158015612eb257600080fd5b505af1158015612ec6573d6000803e3d6000fd5b505050506040513d601f19601f82011682018060405250810190612eea9190613ab5565b50604051819033907ff9984c8173c4b4ff9cc454f76ed19c053f4490ccb224fd9ddffeb4ef4bea353090600090a3505060018055505050565b612f2c816133e2565b610b1a83838361310c565b600082820183811015612f5c5760405162461bcd60e51b8152600401610a1290613f75565b9392505050565b600082612f7257506000612c4f565b82820282848281612f7f57fe5b0414612f5c5760405162461bcd60e51b8152600401610a129061435c565b6000808211612fbe5760405162461bcd60e51b8152600401610a1290614227565b818381612fc757fe5b049392505050565b600a54604051636eb1769f60e11b81526000916001600160a01b03169063dd62ed3e906130029086903090600401613cd9565b60206040518083038186803b15801561301a57600080fd5b505afa15801561302e573d6000803e3d6000fd5b505050506040513d601f19601f820116820180604052508101906130529190613c65565b9050601954811015801561306857506016548111155b6130845760405162461bcd60e51b8152600401610a129061425e565b600a546130a2906001600160a01b031684308463ffffffff612b2516565b610b1a838383612f23565b600290565b303b1590565b61097f816040516024016130cc9190613cc5565b60408051601f198184030181529190526020810180516001600160e01b031663161765e160e11b179052612745565b6000613106306135e8565b15905090565b6000613117846132c2565b9050600061313660195461192860185486612f6390919063ffffffff16565b6001600160a01b0386166000908152600560209081526040808320805462ff0000191662010000179055600391829052909120600181810187905581549394508793919260ff1990921691849081111561318c57fe5b02179055506001600160a01b038516600081815260036020908152604080832043600682018190556007820155600801859055600d80548452600490925290912080546001600160a01b031916909217909155546131f190600163ffffffff612f3716565b600d55600184600381111561320257fe5b14806132195750600284600381111561321757fe5b145b8061322f5750600384600381111561322d57fe5b145b156132585761324b600182601254600f546010546011546135ee565b601155601055600f556012555b8115801561326e57506001600160a01b03851615155b1561328957600c54613289906001600160a01b03168661293a565b6001600160a01b038516156132a3576132a360008661293a565b600c546001600160a01b03868116911614610bfd57610bfd858661293a565b6001600160a01b03811660009081526005602052604081205460ff16156132eb57506001610cc1565b6001600160a01b038216600081815260056020908152604080832043600180830191909155815460ff19168117909155600e805485526006909352922080546001600160a01b031916909317909255905461334b9163ffffffff612f3716565b600e55919050565b60606133a8826040518060400160405280602081526020017f5361666545524332303a206c6f772d6c6576656c2063616c6c206661696c6564815250856001600160a01b031661375a9092919063ffffffff16565b805190915015610b1a57808060200190518101906133c69190613ab5565b610b1a5760405162461bcd60e51b8152600401610a12906145da565b6013546133f5908263ffffffff612f3716565b60135560095460408051630261bf8b60e01b815290516001600160a01b03909216916000918391630261bf8b91600480820192602092909190829003018186803b15801561344257600080fd5b505afa158015613456573d6000803e3d6000fd5b505050506040513d601f19601f8201168201806040525081019061347a91906138dd565b9050600a60009054906101000a90046001600160a01b03166001600160a01b031663095ea7b3836001600160a01b031663ed6ff7606040518163ffffffff1660e01b815260040160206040518083038186803b1580156134d957600080fd5b505afa1580156134ed573d6000803e3d6000fd5b505050506040513d601f19601f8201168201806040525081019061351191906138dd565b856040518363ffffffff1660e01b815260040161352f929190613d17565b602060405180830381600087803b15801561354957600080fd5b505af115801561355d573d6000803e3d6000fd5b505050506040513d601f19601f820116820180604052508101906135819190613ab5565b50600a54601554604051636968703360e11b81526001600160a01b038085169363d2d0e066936135ba9391909216918891600401613d30565b600060405180830381600087803b1580156135d457600080fd5b505af1158015610e77573d6000803e3d6000fd5b3b151590565b60008080808780828960018e600281111561360557fe5b14156136475761361c84600163ffffffff612f3716565b935061362e818463ffffffff612f6316565b9150613640828e63ffffffff612f3716565b91506136c5565b60008e600281111561365557fe5b14156136905761366c84600163ffffffff612c2816565b935061367e818463ffffffff612f6316565b9150613640828e63ffffffff612c2816565b60028e600281111561369e57fe5b1415612cc55761362e6136b884600163ffffffff612c2816565b829063ffffffff612f6316565b8360006136d8438c63ffffffff612c2816565b905060006136ec858863ffffffff612f9d16565b90508c6000613701858563ffffffff612f6316565b90506000613715828563ffffffff612f6316565b9050613727838263ffffffff612f3716565b9250856001141561373757600092505b899d50839c50829b50439a50505050505050505050509650965096509692505050565b60606137698484600085613771565b949350505050565b6060824710156137935760405162461bcd60e51b8152600401610a12906141aa565b61379c856135e8565b6137b85760405162461bcd60e51b8152600401610a129061455d565b60006060866001600160a01b031685876040516137d59190613ca9565b60006040518083038185875af1925050503d8060008114613812576040519150601f19603f3d011682016040523d82523d6000602084013e613817565b606091505b5091509150613827828286613832565b979650505050505050565b60608315613841575081612f5c565b8251156138515782518084602001fd5b8160405162461bcd60e51b8152600401610a129190613db9565b60008083601f84011261387c578182fd5b50813567ffffffffffffffff811115613893578182fd5b6020830191508360208285010111156138ab57600080fd5b9250929050565b803560048110612c4f57600080fd5b6000602082840312156138d2578081fd5b8135612f5c816146d3565b6000602082840312156138ee578081fd5b8151612f5c816146d3565b6000806040838503121561390b578081fd5b8235613916816146d3565b91506020830135613926816146d3565b809150509250929050565b600080600080600060a08688031215613948578081fd5b8535613953816146d3565b94506020860135613963816146d3565b93506040860135613973816146d3565b92506060860135613983816146d3565b949793965091946080013592915050565b600080600080606085870312156139a9578384fd5b84356139b4816146d3565b935060208501356139c4816146d3565b9250604085013567ffffffffffffffff8111156139df578283fd5b6139eb8782880161386b565b95989497509550505050565b600080600060608486031215613a0b578283fd5b8335613a16816146d3565b92506020840135613a26816146d3565b929592945050506040919091013590565b600080600060408486031215613a4b578283fd5b8335613a56816146d3565b9250602084013567ffffffffffffffff811115613a71578283fd5b613a7d8682870161386b565b9497909650939450505050565b60008060408385031215613a9c578182fd5b8235613aa7816146d3565b946020939093013593505050565b600060208284031215613ac6578081fd5b81518015158114612f5c578182fd5b60008060208385031215613ae7578182fd5b823567ffffffffffffffff811115613afd578283fd5b613b098582860161386b565b90969095509350505050565b600060208284031215613b26578081fd5b813567ffffffffffffffff80821115613b3d578283fd5b81840185601f820112613b4e578384fd5b8035925081831115613b5e578384fd5b604051601f8401601f191681016020018381118282101715613b7e578586fd5b604052838152818401602001871015613b95578485fd5b613ba684602083016020850161469b565b9695505050505050565b600080600060408486031215613bc4578283fd5b613a5685856138b2565b600080600080600060608688031215613be5578283fd5b613bef87876138b2565b9450602086013567ffffffffffffffff80821115613c0b578485fd5b613c1789838a0161386b565b90965094506040880135915080821115613c2f578283fd5b50613c3c8882890161386b565b969995985093965092949392505050565b600060208284031215613c5e578081fd5b5035919050565b600060208284031215613c76578081fd5b5051919050565b60008151808452613c958160208601602086016146a7565b601f01601f19169290920160200192915050565b60008251613cbb8184602087016146a7565b9190910192915050565b6001600160a01b0391909116815260200190565b6001600160a01b0392831681529116602082015260400190565b6001600160a01b039384168152919092166020820152604081019190915260600190565b6001600160a01b03929092168252602082015260400190565b6001600160a01b03939093168352602083019190915261ffff16604082015260600190565b901515815260200190565b9515158652931515602086015291151560408501526060840152608083015260a082015260c00190565b60006020825282602083015282846040840137818301604090810191909152601f909201601f19160101919050565b600060208252612f5c6020830184613c7d565b610140810160048c10613ddb57fe5b9a815298151560208a015260408901979097526060880195909552608087019390935260a086019190915260c085015260e08401526101008301526101209091015290565b6020808252601c908201527f5573657220616c72656164792061204368616e6e656c204f776e657200000000604082015260600190565b6020808252818101527f4368616e6e656c206861732065787465726e616c207375627363726962657273604082015260600190565b60208082526015908201527421b7b73a3930b1ba103430b990283937b6b7ba32b960591b604082015260600190565b60208082526015908201527410da185b9b995b081a5cc819dc985e5b1a5cdd1959605a1b604082015260600190565b60208082526026908201527f4d696e696d756d20446f6e6174696f6e20616d6f756e7420697320302e3030316040820152651032ba3432b960d11b606082015260800190565b60208082526025908201527f4368616e6e656c206465616374697661746564206f7220646f65736e27742065604082015264786973747360d81b606082015260800190565b6020808252601b908201527f536166654d6174683a206164646974696f6e206f766572666c6f770000000000604082015260600190565b60208082526030908201527f312b516d5362525431364a56463932327941423236597857464436446d47736e60408201526f14d21b4e15909c91d5545b961514cdcd60821b606082015260800190565b60208082526030908201527f312b516d526365776e4e70647432445759757564334c784854776f783252715160408201526f1c3abcad2ba2251b32ac9b34a435b33760811b606082015260800190565b60208082526024908201527f55736572206e6f7420696e204368616e6e656c697a6174696f6e2057686974656040820152631b1a5cdd60e21b606082015260800190565b602080825260129082015271496e73756666696369656e742046756e647360701b604082015260600190565b60208082526029908201527f45504e53436f72653a3a6f6e6c79476f762c2075736572206973206e6f7420676040820152686f7665726e616e636560b81b606082015260800190565b6020808252601e908201527f536166654d6174683a207375627472616374696f6e206f766572666c6f770000604082015260600190565b60208082526048908201527f45504e53436f72653a3a7472616e73666572476f7665726e616e63652c206e6560408201527f7720676f7665726e616e63652063616e27742062652063757272656e7420676f6060820152677665726e616e636560c01b608082015260a00190565b60208082526026908201527f416464726573733a20696e73756666696369656e742062616c616e636520666f6040820152651c8818d85b1b60d21b606082015260800190565b6020808252601c908201527f5075626c6963204b65792056616c69646174696f6e204661696c656400000000604082015260600190565b6020808252601a908201527f536166654d6174683a206469766973696f6e206279207a65726f000000000000604082015260600190565b60208082526029908201527f496e73756666696369656e742046756e6473206f72206d6178206365696c696e60408201526819c81c995858da195960ba1b606082015260800190565b6020808252602e908201527f496e697469616c697a61626c653a20636f6e747261637420697320616c72656160408201526d191e481a5b9a5d1a585b1a5e995960921b606082015260800190565b60208082526016908201527524b73b30b634b21021b430b73732b61020b1ba34b7b760511b604082015260600190565b60208082526019908201527f5375627363726962657220616c72656164792045786973747300000000000000604082015260600190565b60208082526021908201527f536166654d6174683a206d756c7469706c69636174696f6e206f766572666c6f6040820152607760f81b606082015260800190565b60208082526014908201527310da185b9b995b08151e5c1948125b9d985b1a5960621b604082015260600190565b6020808252603a908201527f45504e53436f72653a3a7472616e73666572476f7665726e616e63652c206e6560408201527f7720676f7665726e616e63652063616e2774206265206e6f6e65000000000000606082015260800190565b6020808252602e908201527f436f6e747261637420696e7374616e63652068617320616c726561647920626560408201526d195b881a5b9a5d1a585b1a5e995960921b606082015260800190565b60208082526019908201527f5375627363726962657220646f65736e27742045786973747300000000000000604082015260600190565b602080825260169082015275155cd95c881b9bdd081858dd1a5d985d1959081e595d60521b604082015260600190565b6020808252601690820152754368616e6e656c20646f65736e27742045786973747360501b604082015260600190565b60208082526030908201527f312b516d54434b594c324852627744366e474e76464c6534775076444e75615960408201526f477236526956654376576a56706e357360801b606082015260800190565b6020808252601d908201527f416464726573733a2063616c6c20746f206e6f6e2d636f6e7472616374000000604082015260600190565b60208082526026908201527f456974686572204368616e6e656c204f776e6572206f72204e6f74205375627360408201526518dc9a58995960d21b606082015260800190565b6020808252602a908201527f5361666545524332303a204552433230206f7065726174696f6e20646964206e6040820152691bdd081cdd58d8d9595960b21b606082015260800190565b6020808252601f908201527f5265656e7472616e637947756172643a207265656e7472616e742063616c6c00604082015260600190565b6020808252601f908201527f4e6f7420617574686f726973656420746f2073656e64206d6573736167657300604082015260600190565b90815260200190565b82818337506000910152565b60005b838110156146c25781810151838201526020016146aa565b8381111561273f5750506000910152565b6001600160a01b038116811461097f57600080fdfe1f97bc77a1686355f130d93883d42f2434474cf65f97b29bc451ea7f9388d36aa2646970667358221220faf1063e45e9313d17a80f2a8ef3210ef2180350802f57b597ffa5246f66ddc564736f6c634300060b0033",
  "linkReferences": {},
  "deployedLinkReferences": {}
}